{
  "_format": "hh-sol-artifact-1",
  "contractName": "Healthcare",
  "sourceName": "contracts/Healthcare.sol",
  "abi": [
    {
      "inputs": [],
      "stateMutability": "nonpayable",
      "type": "constructor"
    },
    {
      "anonymous": false,
      "inputs": [
        {
          "indexed": true,
          "internalType": "uint256",
          "name": "appointmentId",
          "type": "uint256"
        },
        {
          "indexed": true,
          "internalType": "address",
          "name": "patient",
          "type": "address"
        },
        {
          "indexed": true,
          "internalType": "address",
          "name": "doctor",
          "type": "address"
        }
      ],
      "name": "AppointmentBooked",
      "type": "event"
    },
    {
      "anonymous": false,
      "inputs": [
        {
          "indexed": true,
          "internalType": "uint256",
          "name": "appointmentId",
          "type": "uint256"
        }
      ],
      "name": "AppointmentCompleted",
      "type": "event"
    },
    {
      "anonymous": false,
      "inputs": [
        {
          "indexed": true,
          "internalType": "address",
          "name": "doctor",
          "type": "address"
        }
      ],
      "name": "DoctorRegistered",
      "type": "event"
    },
    {
      "anonymous": false,
      "inputs": [
        {
          "indexed": true,
          "internalType": "address",
          "name": "admin",
          "type": "address"
        },
        {
          "indexed": true,
          "internalType": "address",
          "name": "doctor",
          "type": "address"
        },
        {
          "indexed": false,
          "internalType": "bool",
          "name": "status",
          "type": "bool"
        }
      ],
      "name": "DoctorVerified",
      "type": "event"
    },
    {
      "anonymous": false,
      "inputs": [
        {
          "indexed": true,
          "internalType": "address",
          "name": "patient",
          "type": "address"
        },
        {
          "indexed": true,
          "internalType": "address",
          "name": "doctor",
          "type": "address"
        }
      ],
      "name": "MedicalRecordUpdated",
      "type": "event"
    },
    {
      "anonymous": false,
      "inputs": [
        {
          "indexed": true,
          "internalType": "uint256",
          "name": "medicineId",
          "type": "uint256"
        }
      ],
      "name": "MedicineAdded",
      "type": "event"
    },
    {
      "anonymous": false,
      "inputs": [
        {
          "indexed": true,
          "internalType": "address",
          "name": "patient",
          "type": "address"
        },
        {
          "indexed": true,
          "internalType": "address",
          "name": "doctor",
          "type": "address"
        },
        {
          "indexed": false,
          "internalType": "uint256",
          "name": "medicineId",
          "type": "uint256"
        }
      ],
      "name": "MedicinePrescribed",
      "type": "event"
    },
    {
      "anonymous": false,
      "inputs": [
        {
          "indexed": true,
          "internalType": "address",
          "name": "patient",
          "type": "address"
        },
        {
          "indexed": true,
          "internalType": "uint256",
          "name": "medicineId",
          "type": "uint256"
        },
        {
          "indexed": false,
          "internalType": "uint256",
          "name": "quantity",
          "type": "uint256"
        }
      ],
      "name": "MedicinePurchased",
      "type": "event"
    },
    {
      "anonymous": false,
      "inputs": [
        {
          "indexed": true,
          "internalType": "address",
          "name": "sender",
          "type": "address"
        },
        {
          "indexed": true,
          "internalType": "address",
          "name": "receiver",
          "type": "address"
        }
      ],
      "name": "MessageSent",
      "type": "event"
    },
    {
      "anonymous": false,
      "inputs": [
        {
          "indexed": true,
          "internalType": "address",
          "name": "patient",
          "type": "address"
        }
      ],
      "name": "PatientRegistered",
      "type": "event"
    },
    {
      "inputs": [
        {
          "internalType": "string",
          "name": "_name",
          "type": "string"
        },
        {
          "internalType": "string",
          "name": "_manufacturer",
          "type": "string"
        },
        {
          "internalType": "string",
          "name": "_category",
          "type": "string"
        },
        {
          "internalType": "string",
          "name": "_dosage",
          "type": "string"
        },
        {
          "internalType": "uint256",
          "name": "_price",
          "type": "uint256"
        },
        {
          "internalType": "uint256",
          "name": "_stockQuantity",
          "type": "uint256"
        },
        {
          "internalType": "uint256",
          "name": "_discount",
          "type": "uint256"
        },
        {
          "internalType": "string",
          "name": "_sideEffects",
          "type": "string"
        },
        {
          "internalType": "string",
          "name": "_imageURI",
          "type": "string"
        }
      ],
      "name": "addMedicine",
      "outputs": [],
      "stateMutability": "nonpayable",
      "type": "function"
    },
    {
      "inputs": [],
      "name": "admin",
      "outputs": [
        {
          "internalType": "address",
          "name": "",
          "type": "address"
        }
      ],
      "stateMutability": "view",
      "type": "function"
    },
    {
      "inputs": [],
      "name": "appointmentCount",
      "outputs": [
        {
          "internalType": "uint256",
          "name": "",
          "type": "uint256"
        }
      ],
      "stateMutability": "view",
      "type": "function"
    },
    {
      "inputs": [
        {
          "internalType": "uint256",
          "name": "",
          "type": "uint256"
        }
      ],
      "name": "appointments",
      "outputs": [
        {
          "internalType": "uint256",
          "name": "id",
          "type": "uint256"
        },
        {
          "internalType": "address",
          "name": "patient",
          "type": "address"
        },
        {
          "internalType": "address",
          "name": "doctor",
          "type": "address"
        },
        {
          "internalType": "string",
          "name": "time",
          "type": "string"
        },
        {
          "internalType": "string",
          "name": "note",
          "type": "string"
        },
        {
          "internalType": "bool",
          "name": "isCompleted",
          "type": "bool"
        }
      ],
      "stateMutability": "view",
      "type": "function"
    },
    {
      "inputs": [
        {
          "internalType": "address",
          "name": "_doctor",
          "type": "address"
        },
        {
          "internalType": "string",
          "name": "_time",
          "type": "string"
        },
        {
          "internalType": "string",
          "name": "_note",
          "type": "string"
        }
      ],
      "name": "bookAppointment",
      "outputs": [],
      "stateMutability": "payable",
      "type": "function"
    },
    {
      "inputs": [
        {
          "internalType": "uint256",
          "name": "_medicineId",
          "type": "uint256"
        },
        {
          "internalType": "uint256",
          "name": "_quantity",
          "type": "uint256"
        }
      ],
      "name": "buyMedicine",
      "outputs": [],
      "stateMutability": "payable",
      "type": "function"
    },
    {
      "inputs": [
        {
          "internalType": "uint256",
          "name": "_appointmentId",
          "type": "uint256"
        }
      ],
      "name": "completeAppointment",
      "outputs": [],
      "stateMutability": "nonpayable",
      "type": "function"
    },
    {
      "inputs": [
        {
          "internalType": "uint256",
          "name": "",
          "type": "uint256"
        }
      ],
      "name": "doctorAddresses",
      "outputs": [
        {
          "internalType": "address",
          "name": "",
          "type": "address"
        }
      ],
      "stateMutability": "view",
      "type": "function"
    },
    {
      "inputs": [
        {
          "internalType": "address",
          "name": "",
          "type": "address"
        },
        {
          "internalType": "uint256",
          "name": "",
          "type": "uint256"
        }
      ],
      "name": "doctorAppointments",
      "outputs": [
        {
          "internalType": "uint256",
          "name": "",
          "type": "uint256"
        }
      ],
      "stateMutability": "view",
      "type": "function"
    },
    {
      "inputs": [],
      "name": "doctorCount",
      "outputs": [
        {
          "internalType": "uint256",
          "name": "",
          "type": "uint256"
        }
      ],
      "stateMutability": "view",
      "type": "function"
    },
    {
      "inputs": [
        {
          "internalType": "address",
          "name": "",
          "type": "address"
        }
      ],
      "name": "doctors",
      "outputs": [
        {
          "internalType": "address",
          "name": "wallet",
          "type": "address"
        },
        {
          "internalType": "string",
          "name": "name",
          "type": "string"
        },
        {
          "internalType": "string",
          "name": "specialization",
          "type": "string"
        },
        {
          "internalType": "string",
          "name": "experience",
          "type": "string"
        },
        {
          "internalType": "uint256",
          "name": "consultationFee",
          "type": "uint256"
        },
        {
          "internalType": "string",
          "name": "availableHours",
          "type": "string"
        },
        {
          "internalType": "string",
          "name": "profileImageURI",
          "type": "string"
        },
        {
          "internalType": "string",
          "name": "certificateURI",
          "type": "string"
        },
        {
          "internalType": "bool",
          "name": "isVerified",
          "type": "bool"
        },
        {
          "internalType": "bool",
          "name": "isRegistered",
          "type": "bool"
        }
      ],
      "stateMutability": "view",
      "type": "function"
    },
    {
      "inputs": [],
      "name": "getAllDoctors",
      "outputs": [
        {
          "components": [
            {
              "internalType": "address",
              "name": "wallet",
              "type": "address"
            },
            {
              "internalType": "string",
              "name": "name",
              "type": "string"
            },
            {
              "internalType": "string",
              "name": "specialization",
              "type": "string"
            },
            {
              "internalType": "string",
              "name": "experience",
              "type": "string"
            },
            {
              "internalType": "uint256",
              "name": "consultationFee",
              "type": "uint256"
            },
            {
              "internalType": "string",
              "name": "availableHours",
              "type": "string"
            },
            {
              "internalType": "string",
              "name": "profileImageURI",
              "type": "string"
            },
            {
              "internalType": "string",
              "name": "certificateURI",
              "type": "string"
            },
            {
              "internalType": "bool",
              "name": "isVerified",
              "type": "bool"
            },
            {
              "internalType": "bool",
              "name": "isRegistered",
              "type": "bool"
            }
          ],
          "internalType": "struct Healthcare.Doctor[]",
          "name": "",
          "type": "tuple[]"
        }
      ],
      "stateMutability": "view",
      "type": "function"
    },
    {
      "inputs": [],
      "name": "getAllMedicines",
      "outputs": [
        {
          "components": [
            {
              "internalType": "uint256",
              "name": "id",
              "type": "uint256"
            },
            {
              "internalType": "string",
              "name": "name",
              "type": "string"
            },
            {
              "internalType": "string",
              "name": "manufacturer",
              "type": "string"
            },
            {
              "internalType": "string",
              "name": "category",
              "type": "string"
            },
            {
              "internalType": "string",
              "name": "dosage",
              "type": "string"
            },
            {
              "internalType": "uint256",
              "name": "price",
              "type": "uint256"
            },
            {
              "internalType": "uint256",
              "name": "stockQuantity",
              "type": "uint256"
            },
            {
              "internalType": "uint256",
              "name": "discount",
              "type": "uint256"
            },
            {
              "internalType": "string",
              "name": "sideEffects",
              "type": "string"
            },
            {
              "internalType": "string",
              "name": "imageURI",
              "type": "string"
            },
            {
              "internalType": "bool",
              "name": "isActive",
              "type": "bool"
            }
          ],
          "internalType": "struct Healthcare.Medicine[]",
          "name": "",
          "type": "tuple[]"
        }
      ],
      "stateMutability": "view",
      "type": "function"
    },
    {
      "inputs": [
        {
          "internalType": "address",
          "name": "_otherUser",
          "type": "address"
        }
      ],
      "name": "getMessages",
      "outputs": [
        {
          "components": [
            {
              "internalType": "address",
              "name": "sender",
              "type": "address"
            },
            {
              "internalType": "address",
              "name": "receiver",
              "type": "address"
            },
            {
              "internalType": "string",
              "name": "content",
              "type": "string"
            },
            {
              "internalType": "uint256",
              "name": "timestamp",
              "type": "uint256"
            }
          ],
          "internalType": "struct Healthcare.Message[]",
          "name": "",
          "type": "tuple[]"
        }
      ],
      "stateMutability": "view",
      "type": "function"
    },
    {
      "inputs": [
        {
          "internalType": "address",
          "name": "_patient",
          "type": "address"
        }
      ],
      "name": "getPatientMedicalHistory",
      "outputs": [
        {
          "components": [
            {
              "internalType": "uint256",
              "name": "id",
              "type": "uint256"
            },
            {
              "internalType": "address",
              "name": "patient",
              "type": "address"
            },
            {
              "internalType": "address",
              "name": "doctor",
              "type": "address"
            },
            {
              "internalType": "string",
              "name": "diagnosis",
              "type": "string"
            },
            {
              "internalType": "string",
              "name": "medicalHistory",
              "type": "string"
            },
            {
              "internalType": "uint256",
              "name": "timestamp",
              "type": "uint256"
            }
          ],
          "internalType": "struct Healthcare.MedicalRecord[]",
          "name": "",
          "type": "tuple[]"
        }
      ],
      "stateMutability": "view",
      "type": "function"
    },
    {
      "inputs": [
        {
          "internalType": "address",
          "name": "_patient",
          "type": "address"
        }
      ],
      "name": "getPatientPrescriptions",
      "outputs": [
        {
          "components": [
            {
              "internalType": "uint256",
              "name": "id",
              "type": "uint256"
            },
            {
              "internalType": "address",
              "name": "patient",
              "type": "address"
            },
            {
              "internalType": "address",
              "name": "doctor",
              "type": "address"
            },
            {
              "internalType": "uint256",
              "name": "medicineId",
              "type": "uint256"
            },
            {
              "internalType": "string",
              "name": "dosageInstruction",
              "type": "string"
            },
            {
              "internalType": "uint256",
              "name": "quantity",
              "type": "uint256"
            },
            {
              "internalType": "uint256",
              "name": "timestamp",
              "type": "uint256"
            }
          ],
          "internalType": "struct Healthcare.Prescription[]",
          "name": "",
          "type": "tuple[]"
        }
      ],
      "stateMutability": "view",
      "type": "function"
    },
    {
      "inputs": [],
      "name": "getPlatformStats",
      "outputs": [
        {
          "internalType": "uint256",
          "name": "_doctors",
          "type": "uint256"
        },
        {
          "internalType": "uint256",
          "name": "_patients",
          "type": "uint256"
        },
        {
          "internalType": "uint256",
          "name": "_medicines",
          "type": "uint256"
        },
        {
          "internalType": "uint256",
          "name": "_appointments",
          "type": "uint256"
        },
        {
          "internalType": "uint256",
          "name": "_revenue",
          "type": "uint256"
        }
      ],
      "stateMutability": "view",
      "type": "function"
    },
    {
      "inputs": [],
      "name": "medicineCount",
      "outputs": [
        {
          "internalType": "uint256",
          "name": "",
          "type": "uint256"
        }
      ],
      "stateMutability": "view",
      "type": "function"
    },
    {
      "inputs": [
        {
          "internalType": "uint256",
          "name": "",
          "type": "uint256"
        }
      ],
      "name": "medicines",
      "outputs": [
        {
          "internalType": "uint256",
          "name": "id",
          "type": "uint256"
        },
        {
          "internalType": "string",
          "name": "name",
          "type": "string"
        },
        {
          "internalType": "string",
          "name": "manufacturer",
          "type": "string"
        },
        {
          "internalType": "string",
          "name": "category",
          "type": "string"
        },
        {
          "internalType": "string",
          "name": "dosage",
          "type": "string"
        },
        {
          "internalType": "uint256",
          "name": "price",
          "type": "uint256"
        },
        {
          "internalType": "uint256",
          "name": "stockQuantity",
          "type": "uint256"
        },
        {
          "internalType": "uint256",
          "name": "discount",
          "type": "uint256"
        },
        {
          "internalType": "string",
          "name": "sideEffects",
          "type": "string"
        },
        {
          "internalType": "string",
          "name": "imageURI",
          "type": "string"
        },
        {
          "internalType": "bool",
          "name": "isActive",
          "type": "bool"
        }
      ],
      "stateMutability": "view",
      "type": "function"
    },
    {
      "inputs": [
        {
          "internalType": "uint256",
          "name": "",
          "type": "uint256"
        }
      ],
      "name": "patientAddresses",
      "outputs": [
        {
          "internalType": "address",
          "name": "",
          "type": "address"
        }
      ],
      "stateMutability": "view",
      "type": "function"
    },
    {
      "inputs": [
        {
          "internalType": "address",
          "name": "",
          "type": "address"
        },
        {
          "internalType": "uint256",
          "name": "",
          "type": "uint256"
        }
      ],
      "name": "patientAppointments",
      "outputs": [
        {
          "internalType": "uint256",
          "name": "",
          "type": "uint256"
        }
      ],
      "stateMutability": "view",
      "type": "function"
    },
    {
      "inputs": [],
      "name": "patientCount",
      "outputs": [
        {
          "internalType": "uint256",
          "name": "",
          "type": "uint256"
        }
      ],
      "stateMutability": "view",
      "type": "function"
    },
    {
      "inputs": [
        {
          "internalType": "address",
          "name": "",
          "type": "address"
        },
        {
          "internalType": "uint256",
          "name": "",
          "type": "uint256"
        }
      ],
      "name": "patientPrescriptions",
      "outputs": [
        {
          "internalType": "uint256",
          "name": "id",
          "type": "uint256"
        },
        {
          "internalType": "address",
          "name": "patient",
          "type": "address"
        },
        {
          "internalType": "address",
          "name": "doctor",
          "type": "address"
        },
        {
          "internalType": "uint256",
          "name": "medicineId",
          "type": "uint256"
        },
        {
          "internalType": "string",
          "name": "dosageInstruction",
          "type": "string"
        },
        {
          "internalType": "uint256",
          "name": "quantity",
          "type": "uint256"
        },
        {
          "internalType": "uint256",
          "name": "timestamp",
          "type": "uint256"
        }
      ],
      "stateMutability": "view",
      "type": "function"
    },
    {
      "inputs": [
        {
          "internalType": "address",
          "name": "",
          "type": "address"
        },
        {
          "internalType": "uint256",
          "name": "",
          "type": "uint256"
        }
      ],
      "name": "patientRecords",
      "outputs": [
        {
          "internalType": "uint256",
          "name": "id",
          "type": "uint256"
        },
        {
          "internalType": "address",
          "name": "patient",
          "type": "address"
        },
        {
          "internalType": "address",
          "name": "doctor",
          "type": "address"
        },
        {
          "internalType": "string",
          "name": "diagnosis",
          "type": "string"
        },
        {
          "internalType": "string",
          "name": "medicalHistory",
          "type": "string"
        },
        {
          "internalType": "uint256",
          "name": "timestamp",
          "type": "uint256"
        }
      ],
      "stateMutability": "view",
      "type": "function"
    },
    {
      "inputs": [
        {
          "internalType": "address",
          "name": "",
          "type": "address"
        }
      ],
      "name": "patients",
      "outputs": [
        {
          "internalType": "address",
          "name": "wallet",
          "type": "address"
        },
        {
          "internalType": "string",
          "name": "name",
          "type": "string"
        },
        {
          "internalType": "uint256",
          "name": "age",
          "type": "uint256"
        },
        {
          "internalType": "string",
          "name": "bloodGroup",
          "type": "string"
        },
        {
          "internalType": "string",
          "name": "allergies",
          "type": "string"
        },
        {
          "internalType": "string",
          "name": "currentMedications",
          "type": "string"
        },
        {
          "internalType": "string",
          "name": "profileImageURI",
          "type": "string"
        },
        {
          "internalType": "address",
          "name": "generalConsultant",
          "type": "address"
        },
        {
          "internalType": "bool",
          "name": "isRegistered",
          "type": "bool"
        }
      ],
      "stateMutability": "view",
      "type": "function"
    },
    {
      "inputs": [],
      "name": "platformRevenue",
      "outputs": [
        {
          "internalType": "uint256",
          "name": "",
          "type": "uint256"
        }
      ],
      "stateMutability": "view",
      "type": "function"
    },
    {
      "inputs": [
        {
          "internalType": "address",
          "name": "_patient",
          "type": "address"
        },
        {
          "internalType": "uint256",
          "name": "_medicineId",
          "type": "uint256"
        },
        {
          "internalType": "string",
          "name": "_dosageInstruction",
          "type": "string"
        },
        {
          "internalType": "uint256",
          "name": "_quantity",
          "type": "uint256"
        }
      ],
      "name": "prescribeMedicine",
      "outputs": [],
      "stateMutability": "nonpayable",
      "type": "function"
    },
    {
      "inputs": [
        {
          "internalType": "string",
          "name": "_name",
          "type": "string"
        },
        {
          "internalType": "string",
          "name": "_specialization",
          "type": "string"
        },
        {
          "internalType": "string",
          "name": "_experience",
          "type": "string"
        },
        {
          "internalType": "uint256",
          "name": "_consultationFee",
          "type": "uint256"
        },
        {
          "internalType": "string",
          "name": "_availableHours",
          "type": "string"
        },
        {
          "internalType": "string",
          "name": "_profileImageURI",
          "type": "string"
        },
        {
          "internalType": "string",
          "name": "_certificateURI",
          "type": "string"
        }
      ],
      "name": "registerDoctor",
      "outputs": [],
      "stateMutability": "payable",
      "type": "function"
    },
    {
      "inputs": [
        {
          "internalType": "string",
          "name": "_name",
          "type": "string"
        },
        {
          "internalType": "uint256",
          "name": "_age",
          "type": "uint256"
        },
        {
          "internalType": "string",
          "name": "_bloodGroup",
          "type": "string"
        },
        {
          "internalType": "string",
          "name": "_allergies",
          "type": "string"
        },
        {
          "internalType": "string",
          "name": "_currentMedications",
          "type": "string"
        },
        {
          "internalType": "string",
          "name": "_profileImageURI",
          "type": "string"
        },
        {
          "internalType": "address",
          "name": "_generalConsultant",
          "type": "address"
        }
      ],
      "name": "registerPatient",
      "outputs": [],
      "stateMutability": "nonpayable",
      "type": "function"
    },
    {
      "inputs": [
        {
          "internalType": "address",
          "name": "_receiver",
          "type": "address"
        },
        {
          "internalType": "string",
          "name": "_content",
          "type": "string"
        }
      ],
      "name": "sendMessage",
      "outputs": [],
      "stateMutability": "nonpayable",
      "type": "function"
    },
    {
      "inputs": [
        {
          "internalType": "address",
          "name": "_patient",
          "type": "address"
        },
        {
          "internalType": "string",
          "name": "_diagnosis",
          "type": "string"
        },
        {
          "internalType": "string",
          "name": "_history",
          "type": "string"
        }
      ],
      "name": "updateMedicalRecord",
      "outputs": [],
      "stateMutability": "nonpayable",
      "type": "function"
    },
    {
      "inputs": [
        {
          "internalType": "address",
          "name": "_doctorAddress",
          "type": "address"
        },
        {
          "internalType": "bool",
          "name": "_status",
          "type": "bool"
        }
      ],
      "name": "verifyDoctor",
      "outputs": [],
      "stateMutability": "nonpayable",
      "type": "function"
    },
    {
      "inputs": [],
      "name": "withdrawPlatformRevenue",
      "outputs": [],
      "stateMutability": "nonpayable",
      "type": "function"
    }
  ],
  "bytecode": "0x608060405234801561001057600080fd5b50600080546001600160a01b03191633179055614c80806100326000396000f3fe6080604052600436106101ee5760003560e01c80638906af481161010d578063c85e766d116100a0578063ea94101c1161006f578063ea94101c14610616578063eebc3fb214610636578063f0d950901461064c578063f851a4401461066e578063f8da57d41461068e57600080fd5b8063c85e766d14610572578063d9591cbc146105a9578063de6f24bb146105c9578063e3da7a58146105e957600080fd5b8063a9583c22116100dc578063a9583c22146104cf578063b2f7132214610505578063b40f169114610532578063c604c4081461055257600080fd5b80638906af48146104455780638a462e1a1461045a57806394f0df6114610487578063a0303c41146104b957600080fd5b80634095b1171161018557806368f2b1d21161015457806368f2b1d2146103ba5780636a85de14146103dc578063733ba56d146103fc57806378522bc41461042f57600080fd5b80634095b117146103515780634978b9ac146103715780634dafd4901461038457806357cd46f51461039a57600080fd5b80631d005072116101c15780631d005072146102c257806324048ba1146102e2578063291be93b146103065780633ba51e7c1461031957600080fd5b80630869cfbc146101f357806312dc90131461023157806312eb9c3d14610263578063136d888314610285575b600080fd5b3480156101ff57600080fd5b5061021361020e366004613d01565b6106a1565b60405161022899989796959493929190613d69565b60405180910390f35b34801561023d57600080fd5b5061025161024c366004613e03565b6109aa565b60405161022896959493929190613e1c565b34801561026f57600080fd5b5061028361027e366004613f19565b610b00565b005b34801561029157600080fd5b5061029a610caa565b604080519586526020860194909452928401919091526060830152608082015260a001610228565b3480156102ce57600080fd5b506102836102dd36600461402d565b610cfa565b3480156102ee57600080fd5b506102f860055481565b604051908152602001610228565b610283610314366004614069565b610df0565b34801561032557600080fd5b50610339610334366004613e03565b6114f0565b6040516001600160a01b039091168152602001610228565b34801561035d57600080fd5b5061028361036c366004613e03565b61151a565b61028361037f3660046140dd565b6115f2565b34801561039057600080fd5b506102f860035481565b3480156103a657600080fd5b506102f86103b53660046141dd565b611874565b3480156103c657600080fd5b506103cf6118a5565b6040516102289190614207565b3480156103e857600080fd5b506102f86103f73660046141dd565b611d67565b34801561040857600080fd5b5061041c6104173660046141dd565b611d83565b604051610228979695949392919061433f565b34801561043b57600080fd5b506102f860015481565b34801561045157600080fd5b50610283611e75565b34801561046657600080fd5b5061047a610475366004613d01565b611f30565b604051610228919061438e565b34801561049357600080fd5b506104a76104a23660046141dd565b6120e8565b60405161022896959493929190614439565b3480156104c557600080fd5b506102f860025481565b3480156104db57600080fd5b506104ef6104ea366004613d01565b61225a565b6040516102289a99989796959493929190614491565b34801561051157600080fd5b50610525610520366004613d01565b6125e7565b6040516102289190614541565b34801561053e57600080fd5b5061033961054d366004613e03565b612727565b34801561055e57600080fd5b5061028361056d366004614069565b612737565b34801561057e57600080fd5b5061059261058d366004613e03565b612902565b6040516102289b9a999897969594939291906145cd565b3480156105b557600080fd5b506102836105c436600461467b565b612c88565b3480156105d557600080fd5b506102836105e4366004614767565b612ef4565b3480156105f557600080fd5b50610609610604366004613d01565b6130b3565b60405161022891906147b5565b34801561062257600080fd5b50610283610631366004614868565b6132de565b34801561064257600080fd5b506102f860045481565b34801561065857600080fd5b50610661613516565b60405161022891906148c7565b34801561067a57600080fd5b50600054610339906001600160a01b031681565b61028361069c3660046149ef565b6139fa565b600860205260009081526040902080546001820180546001600160a01b0390921692916106cd90614a11565b80601f01602080910402602001604051908101604052809291908181526020018280546106f990614a11565b80156107465780601f1061071b57610100808354040283529160200191610746565b820191906000526020600020905b81548152906001019060200180831161072957829003601f168201915b50505050509080600201549080600301805461076190614a11565b80601f016020809104026020016040519081016040528092919081815260200182805461078d90614a11565b80156107da5780601f106107af576101008083540402835291602001916107da565b820191906000526020600020905b8154815290600101906020018083116107bd57829003601f168201915b5050505050908060040180546107ef90614a11565b80601f016020809104026020016040519081016040528092919081815260200182805461081b90614a11565b80156108685780601f1061083d57610100808354040283529160200191610868565b820191906000526020600020905b81548152906001019060200180831161084b57829003601f168201915b50505050509080600501805461087d90614a11565b80601f01602080910402602001604051908101604052809291908181526020018280546108a990614a11565b80156108f65780601f106108cb576101008083540402835291602001916108f6565b820191906000526020600020905b8154815290600101906020018083116108d957829003601f168201915b50505050509080600601805461090b90614a11565b80601f016020809104026020016040519081016040528092919081815260200182805461093790614a11565b80156109845780601f1061095957610100808354040283529160200191610984565b820191906000526020600020905b81548152906001019060200180831161096757829003601f168201915b505050600790930154919250506001600160a01b0381169060ff600160a01b9091041689565b600b60205260009081526040902080546001820154600283015460038401805493946001600160a01b039384169493909216926109e690614a11565b80601f0160208091040260200160405190810160405280929190818152602001828054610a1290614a11565b8015610a5f5780601f10610a3457610100808354040283529160200191610a5f565b820191906000526020600020905b815481529060010190602001808311610a4257829003601f168201915b505050505090806004018054610a7490614a11565b80601f0160208091040260200160405190810160405280929190818152602001828054610aa090614a11565b8015610aed5780601f10610ac257610100808354040283529160200191610aed565b820191906000526020600020905b815481529060010190602001808311610ad057829003601f168201915b5050506005909301549192505060ff1686565b6000546001600160a01b03163314610b335760405162461bcd60e51b8152600401610b2a90614a45565b60405180910390fd5b60038054906000610b4383614a7e565b919050555060405180610160016040528060035481526020018a815260200189815260200188815260200187815260200186815260200185815260200184815260200183815260200182815260200160011515815250600a60006003548152602001908152602001600020600082015181600001556020820151816001019081610bcd9190614ae6565b5060408201516002820190610be29082614ae6565b5060608201516003820190610bf79082614ae6565b5060808201516004820190610c0c9082614ae6565b5060a0820151600582015560c0820151600682015560e082015160078201556101008201516008820190610c409082614ae6565b506101208201516009820190610c569082614ae6565b506101409190910151600a909101805460ff19169115159190911790556003546040517f511473a8b15b86f1492210a23d1ca9781536639fd7d462db4c2f736d1bd8012590600090a2505050505050505050565b6000805481908190819081906001600160a01b03163314610cdd5760405162461bcd60e51b8152600401610b2a90614a45565b505060015460025460035460045460055493979296509094509250565b6000546001600160a01b03163314610d245760405162461bcd60e51b8152600401610b2a90614a45565b6001600160a01b038216600090815260066020526040902060080154610100900460ff16610d8c5760405162461bcd60e51b8152602060048201526015602482015274111bd8dd1bdc881b9bdd081c9959da5cdd195c9959605a1b6044820152606401610b2a565b6001600160a01b038216600081815260066020908152604091829020600801805460ff1916851515908117909155915191825233917ff3b2a2dbe1c8d1e0425b293c440e24d2b5dbe409a1acc30428faa90f8d02342f910160405180910390a35050565b33600090815260086020526040902060070154600160a01b900460ff16610e545760405162461bcd60e51b8152602060048201526018602482015277139bdd0818481c9959da5cdd195c9959081c185d1a595b9d60421b6044820152606401610b2a565b6001600160a01b03831660009081526006602052604090206008015460ff16610eb55760405162461bcd60e51b8152602060048201526013602482015272111bd8dd1bdc881b9bdd081d995c9a599a5959606a1b6044820152606401610b2a565b6001600160a01b0380841660009081526006602090815260408083208151610140810190925280549094168152600184018054939491939192840191610efa90614a11565b80601f0160208091040260200160405190810160405280929190818152602001828054610f2690614a11565b8015610f735780601f10610f4857610100808354040283529160200191610f73565b820191906000526020600020905b815481529060010190602001808311610f5657829003601f168201915b50505050508152602001600282018054610f8c90614a11565b80601f0160208091040260200160405190810160405280929190818152602001828054610fb890614a11565b80156110055780601f10610fda57610100808354040283529160200191611005565b820191906000526020600020905b815481529060010190602001808311610fe857829003601f168201915b5050505050815260200160038201805461101e90614a11565b80601f016020809104026020016040519081016040528092919081815260200182805461104a90614a11565b80156110975780601f1061106c57610100808354040283529160200191611097565b820191906000526020600020905b81548152906001019060200180831161107a57829003601f168201915b50505050508152602001600482015481526020016005820180546110ba90614a11565b80601f01602080910402602001604051908101604052809291908181526020018280546110e690614a11565b80156111335780601f1061110857610100808354040283529160200191611133565b820191906000526020600020905b81548152906001019060200180831161111657829003601f168201915b5050505050815260200160068201805461114c90614a11565b80601f016020809104026020016040519081016040528092919081815260200182805461117890614a11565b80156111c55780601f1061119a576101008083540402835291602001916111c5565b820191906000526020600020905b8154815290600101906020018083116111a857829003601f168201915b505050505081526020016007820180546111de90614a11565b80601f016020809104026020016040519081016040528092919081815260200182805461120a90614a11565b80156112575780601f1061122c57610100808354040283529160200191611257565b820191906000526020600020905b81548152906001019060200180831161123a57829003601f168201915b50505091835250506008919091015460ff808216151560208401526101009091041615156040909101526080810151909150348111156112d95760405162461bcd60e51b815260206004820152601d60248201527f496e73756666696369656e7420636f6e73756c746174696f6e206665650000006044820152606401610b2a565b600060646112e883600a614ba6565b6112f29190614bbd565b905060006113008284614bdf565b905081600560008282546113149190614bf2565b90915550506040516001600160a01b0388169082156108fc029083906000818181858888f1935050505015801561134f573d6000803e3d6000fd5b508234111561139057336108fc6113668534614bdf565b6040518115909202916000818181858888f1935050505015801561138e573d6000803e3d6000fd5b505b600480549060006113a083614a7e565b90915550506040805160c0810182526004548082523360208084019182526001600160a01b038c8116858701908152606086018d8152608087018d9052600060a08801819052958652600b909352959093208451815591516001830180549185166001600160a01b0319928316179055945160028301805491909416951694909417909155915190919060038201906114399082614ae6565b506080820151600482019061144e9082614ae6565b5060a091909101516005909101805460ff19169115159190911790556001600160a01b0387166000818152600c6020908152604080832060048054825460018181018555938752858720015533808652600d85528386208254815494850182559087529486209092019390935591549051919290917f293ab1017d4dce6bbfd2f1a97155e877709f29ee393b5226fe7d731879fe8b669190a450505050505050565b6007818154811061150057600080fd5b6000918252602090912001546001600160a01b0316905081565b3360009081526006602052604090206008015460ff1661154c5760405162461bcd60e51b8152600401610b2a90614c05565b6000818152600b60205260409020600201546001600160a01b031633146115ac5760405162461bcd60e51b8152602060048201526014602482015273139bdd081e5bdd5c88185c1c1bda5b9d1b595b9d60621b6044820152606401610b2a565b6000818152600b6020526040808220600501805460ff191660011790555182917f96f7f7d72a3fe4b137949271ceab16ab2121be2faeda69bb82794730701668ca91a250565b33600090815260066020526040902060080154610100900460ff161561164f5760405162461bcd60e51b8152602060048201526012602482015271105b1c9958591e481c9959da5cdd195c995960721b6044820152606401610b2a565b6000341161169f5760405162461bcd60e51b815260206004820152601960248201527f526567697374726174696f6e20666565207265717569726564000000000000006044820152606401610b2a565b34600560008282546116b19190614bf2565b909155505060408051610140810182523380825260208083018b81528385018b9052606084018a90526080840189905260a0840188905260c0840187905260e0840186905260006101008501819052600161012086018190529381526006909252939020825181546001600160a01b0319166001600160a01b039091161781559251919291908201906117449082614ae6565b50604082015160028201906117599082614ae6565b506060820151600382019061176e9082614ae6565b506080820151600482015560a0820151600582019061178d9082614ae6565b5060c082015160068201906117a29082614ae6565b5060e082015160078201906117b79082614ae6565b50610100828101516008909201805461012090940151151590910261ff00199215159290921661ffff1990931692909217179055600780546001818101835560009283527fa66cc928b5edb82af9bd49922954155ab7b0942694bea4ce44661d9a8736c68890910180546001600160a01b0319163317905580549161183b83614a7e565b909155505060405133907f2dc8105a7545248d0e354c4c6b02fb583071cc719fb4bef1ca74d72d475570bc90600090a250505050505050565b600c602052816000526040600020818154811061189057600080fd5b90600052602060002001600091509150505481565b6060600060035467ffffffffffffffff8111156118c4576118c4613e76565b60405190808252806020026020018201604052801561195457816020015b611941604051806101600160405280600081526020016060815260200160608152602001606081526020016060815260200160008152602001600081526020016000815260200160608152602001606081526020016000151581525090565b8152602001906001900390816118e25790505b50905060015b6003548111611d6157600a6000828152602001908152602001600020604051806101600160405290816000820154815260200160018201805461199c90614a11565b80601f01602080910402602001604051908101604052809291908181526020018280546119c890614a11565b8015611a155780601f106119ea57610100808354040283529160200191611a15565b820191906000526020600020905b8154815290600101906020018083116119f857829003601f168201915b50505050508152602001600282018054611a2e90614a11565b80601f0160208091040260200160405190810160405280929190818152602001828054611a5a90614a11565b8015611aa75780601f10611a7c57610100808354040283529160200191611aa7565b820191906000526020600020905b815481529060010190602001808311611a8a57829003601f168201915b50505050508152602001600382018054611ac090614a11565b80601f0160208091040260200160405190810160405280929190818152602001828054611aec90614a11565b8015611b395780601f10611b0e57610100808354040283529160200191611b39565b820191906000526020600020905b815481529060010190602001808311611b1c57829003601f168201915b50505050508152602001600482018054611b5290614a11565b80601f0160208091040260200160405190810160405280929190818152602001828054611b7e90614a11565b8015611bcb5780601f10611ba057610100808354040283529160200191611bcb565b820191906000526020600020905b815481529060010190602001808311611bae57829003601f168201915b50505050508152602001600582015481526020016006820154815260200160078201548152602001600882018054611c0290614a11565b80601f0160208091040260200160405190810160405280929190818152602001828054611c2e90614a11565b8015611c7b5780601f10611c5057610100808354040283529160200191611c7b565b820191906000526020600020905b815481529060010190602001808311611c5e57829003601f168201915b50505050508152602001600982018054611c9490614a11565b80601f0160208091040260200160405190810160405280929190818152602001828054611cc090614a11565b8015611d0d5780601f10611ce257610100808354040283529160200191611d0d565b820191906000526020600020905b815481529060010190602001808311611cf057829003601f168201915b5050509183525050600a919091015460ff16151560209091015282611d33600184614bdf565b81518110611d4357611d43614c34565b60200260200101819052508080611d5990614a7e565b91505061195a565b50919050565b600d602052816000526040600020818154811061189057600080fd5b600f6020528160005260406000208181548110611d9f57600080fd5b6000918252602090912060079091020180546001820154600283015460038401546004850180549497506001600160a01b03938416965091909216939192611de690614a11565b80601f0160208091040260200160405190810160405280929190818152602001828054611e1290614a11565b8015611e5f5780601f10611e3457610100808354040283529160200191611e5f565b820191906000526020600020905b815481529060010190602001808311611e4257829003601f168201915b5050505050908060050154908060060154905087565b6000546001600160a01b03163314611e9f5760405162461bcd60e51b8152600401610b2a90614a45565b600060055411611ee85760405162461bcd60e51b81526020600482015260146024820152734e6f20726576656e756520617661696c61626c6560601b6044820152606401610b2a565b60058054600091829055815460405191926001600160a01b039091169183156108fc0291849190818181858888f19350505050158015611f2c573d6000803e3d6000fd5b5050565b6060336001600160a01b0383161480611f5b57503360009081526006602052604090206008015460ff165b611f985760405162461bcd60e51b815260206004820152600e60248201526d139bdd08185d5d1a1bdc9a5e995960921b6044820152606401610b2a565b6001600160a01b0382166000908152600f6020908152604080832080548251818502810185019093528083529193909284015b828210156120dd5760008481526020908190206040805160e081018252600786029092018054835260018101546001600160a01b03908116948401949094526002810154909316908201526003820154606082015260048201805491929160808401919061203890614a11565b80601f016020809104026020016040519081016040528092919081815260200182805461206490614a11565b80156120b15780601f10612086576101008083540402835291602001916120b1565b820191906000526020600020905b81548152906001019060200180831161209457829003601f168201915b505050505081526020016005820154815260200160068201548152505081526020019060010190611fcb565b505050509050919050565b600e602052816000526040600020818154811061210457600080fd5b600091825260209091206006909102018054600182015460028301546003840180549396506001600160a01b0392831695509116929161214390614a11565b80601f016020809104026020016040519081016040528092919081815260200182805461216f90614a11565b80156121bc5780601f10612191576101008083540402835291602001916121bc565b820191906000526020600020905b81548152906001019060200180831161219f57829003601f168201915b5050505050908060040180546121d190614a11565b80601f01602080910402602001604051908101604052809291908181526020018280546121fd90614a11565b801561224a5780601f1061221f5761010080835404028352916020019161224a565b820191906000526020600020905b81548152906001019060200180831161222d57829003601f168201915b5050505050908060050154905086565b600660205260009081526040902080546001820180546001600160a01b03909216929161228690614a11565b80601f01602080910402602001604051908101604052809291908181526020018280546122b290614a11565b80156122ff5780601f106122d4576101008083540402835291602001916122ff565b820191906000526020600020905b8154815290600101906020018083116122e257829003601f168201915b50505050509080600201805461231490614a11565b80601f016020809104026020016040519081016040528092919081815260200182805461234090614a11565b801561238d5780601f106123625761010080835404028352916020019161238d565b820191906000526020600020905b81548152906001019060200180831161237057829003601f168201915b5050505050908060030180546123a290614a11565b80601f01602080910402602001604051908101604052809291908181526020018280546123ce90614a11565b801561241b5780601f106123f05761010080835404028352916020019161241b565b820191906000526020600020905b8154815290600101906020018083116123fe57829003601f168201915b50505050509080600401549080600501805461243690614a11565b80601f016020809104026020016040519081016040528092919081815260200182805461246290614a11565b80156124af5780601f10612484576101008083540402835291602001916124af565b820191906000526020600020905b81548152906001019060200180831161249257829003601f168201915b5050505050908060060180546124c490614a11565b80601f01602080910402602001604051908101604052809291908181526020018280546124f090614a11565b801561253d5780601f106125125761010080835404028352916020019161253d565b820191906000526020600020905b81548152906001019060200180831161252057829003601f168201915b50505050509080600701805461255290614a11565b80601f016020809104026020016040519081016040528092919081815260200182805461257e90614a11565b80156125cb5780601f106125a0576101008083540402835291602001916125cb565b820191906000526020600020905b8154815290600101906020018083116125ae57829003601f168201915b5050506008909301549192505060ff808216916101009004168a565b606060006125f53384613c4e565b905060106000828152602001908152602001600020805480602002602001604051908101604052809291908181526020016000905b8282101561271b576000848152602090819020604080516080810182526004860290920180546001600160a01b039081168452600182015416938301939093526002830180549293929184019161268090614a11565b80601f01602080910402602001604051908101604052809291908181526020018280546126ac90614a11565b80156126f95780601f106126ce576101008083540402835291602001916126f9565b820191906000526020600020905b8154815290600101906020018083116126dc57829003601f168201915b505050505081526020016003820154815250508152602001906001019061262a565b50505050915050919050565b6009818154811061150057600080fd5b3360009081526006602052604090206008015460ff166127695760405162461bcd60e51b8152600401610b2a90614c05565b6001600160a01b038316600090815260086020526040902060070154600160a01b900460ff166127d45760405162461bcd60e51b815260206004820152601660248201527514185d1a595b9d081b9bdd081c9959da5cdd195c995960521b6044820152606401610b2a565b6001600160a01b0383166000908152600e602052604090819020815160c0810190925280549091908190612809906001614bf2565b81526001600160a01b03808716602080840191909152336040808501919091526060808501899052608085018890524260a09095019490945285546001818101885560009788529683902086516006909202019081559185015195820180549684166001600160a01b031997881617905584015160028201805491909316951694909417905581015190919060038201906128a49082614ae6565b50608082015160048201906128b99082614ae6565b5060a0919091015160059091015560405133906001600160a01b038516907f7aad3427a5688a3c9b78661da62e1b221cd7ed81de6187fee67c0fd73c162a6d90600090a3505050565b600a602052600090815260409020805460018201805491929161292490614a11565b80601f016020809104026020016040519081016040528092919081815260200182805461295090614a11565b801561299d5780601f106129725761010080835404028352916020019161299d565b820191906000526020600020905b81548152906001019060200180831161298057829003601f168201915b5050505050908060020180546129b290614a11565b80601f01602080910402602001604051908101604052809291908181526020018280546129de90614a11565b8015612a2b5780601f10612a0057610100808354040283529160200191612a2b565b820191906000526020600020905b815481529060010190602001808311612a0e57829003601f168201915b505050505090806003018054612a4090614a11565b80601f0160208091040260200160405190810160405280929190818152602001828054612a6c90614a11565b8015612ab95780601f10612a8e57610100808354040283529160200191612ab9565b820191906000526020600020905b815481529060010190602001808311612a9c57829003601f168201915b505050505090806004018054612ace90614a11565b80601f0160208091040260200160405190810160405280929190818152602001828054612afa90614a11565b8015612b475780601f10612b1c57610100808354040283529160200191612b47565b820191906000526020600020905b815481529060010190602001808311612b2a57829003601f168201915b505050505090806005015490806006015490806007015490806008018054612b6e90614a11565b80601f0160208091040260200160405190810160405280929190818152602001828054612b9a90614a11565b8015612be75780601f10612bbc57610100808354040283529160200191612be7565b820191906000526020600020905b815481529060010190602001808311612bca57829003601f168201915b505050505090806009018054612bfc90614a11565b80601f0160208091040260200160405190810160405280929190818152602001828054612c2890614a11565b8015612c755780601f10612c4a57610100808354040283529160200191612c75565b820191906000526020600020905b815481529060010190602001808311612c5857829003601f168201915b505050600a909301549192505060ff168b565b33600090815260086020526040902060070154600160a01b900460ff1615612ce75760405162461bcd60e51b8152602060048201526012602482015271105b1c9958591e481c9959da5cdd195c995960721b6044820152606401610b2a565b6001600160a01b03811660009081526006602052604090206008015460ff16612d475760405162461bcd60e51b8152602060048201526012602482015271125b9d985b1a590818dbdb9cdd5b1d185b9d60721b6044820152606401610b2a565b60408051610120810182523380825260208083018b81528385018b9052606084018a90526080840189905260a0840188905260c084018790526001600160a01b0386811660e0860152600161010086018190526000948552600890935294909220835181546001600160a01b0319169516949094178455905191929190820190612dd19082614ae6565b506040820151600282015560608201516003820190612df09082614ae6565b5060808201516004820190612e059082614ae6565b5060a08201516005820190612e1a9082614ae6565b5060c08201516006820190612e2f9082614ae6565b5060e082015160079091018054610100909301511515600160a01b026001600160a81b03199093166001600160a01b03909216919091179190911790556009805460018101825560009182527f6e1540171b6c0c960b71a7020d9f60077f6af931a8bbf590da0223dacf75c7af0180546001600160a01b031916331790556002805491612ebb83614a7e565b909155505060405133907fc9fa2003fca4ce0dfc8cb0deae32266b715536df6685365b05b5be96ede8e49c90600090a250505050505050565b3360009081526006602052604090206008015460ff168015612f3857506001600160a01b038216600090815260086020526040902060070154600160a01b900460ff165b80612f82575033600090815260086020526040902060070154600160a01b900460ff168015612f8257506001600160a01b03821660009081526006602052604090206008015460ff165b612fce5760405162461bcd60e51b815260206004820152601d60248201527f556e617574686f72697a6564206368617420636f6d62696e6174696f6e0000006044820152606401610b2a565b6000612fda3384613c4e565b600081815260106020908152604080832081516080810183523381526001600160a01b0389811682860190815293820189815242606084015283546001818101865594885295909620825160049096020180549582166001600160a01b031996871617815593519284018054939091169290941691909117909255915192935091600282019061306a9082614ae6565b50606091909101516003909101556040516001600160a01b0384169033907f921d068ef716f8cffdc14d917b9e3b77c957cd11d308c2c4f92732cc0190f86190600090a3505050565b6060336001600160a01b03831614806130de57503360009081526006602052604090206008015460ff165b61311b5760405162461bcd60e51b815260206004820152600e60248201526d139bdd08185d5d1a1bdc9a5e995960921b6044820152606401610b2a565b6001600160a01b0382166000908152600e6020908152604080832080548251818502810185019093528083529193909284015b828210156120dd5760008481526020908190206040805160c081018252600686029092018054835260018101546001600160a01b03908116948401949094526002810154909316908201526003820180549192916060840191906131b190614a11565b80601f01602080910402602001604051908101604052809291908181526020018280546131dd90614a11565b801561322a5780601f106131ff5761010080835404028352916020019161322a565b820191906000526020600020905b81548152906001019060200180831161320d57829003601f168201915b5050505050815260200160048201805461324390614a11565b80601f016020809104026020016040519081016040528092919081815260200182805461326f90614a11565b80156132bc5780601f10613291576101008083540402835291602001916132bc565b820191906000526020600020905b81548152906001019060200180831161329f57829003601f168201915b505050505081526020016005820154815250508152602001906001019061314e565b3360009081526006602052604090206008015460ff166133105760405162461bcd60e51b8152600401610b2a90614c05565b6001600160a01b038416600090815260086020526040902060070154600160a01b900460ff1661337b5760405162461bcd60e51b815260206004820152601660248201527514185d1a595b9d081b9bdd081c9959da5cdd195c995960521b6044820152606401610b2a565b6000838152600a60208190526040909120015460ff166133d65760405162461bcd60e51b81526020600482015260166024820152754d65646963696e65206e6f7420617661696c61626c6560501b6044820152606401610b2a565b6001600160a01b0384166000908152600f602052604090819020815160e081019092528054909190819061340b906001614bf2565b81526001600160a01b038088166020808401919091523360408085019190915260608085018a905260808086018a905260a086018990524260c09096019590955286546001818101895560009889529784902087516007909202019081559286015196830180549785166001600160a01b0319988916179055908501516002830180549190941696169590951790915592820151600384015581015190919060048201906134b99082614ae6565b5060a0820151600582015560c09091015160069091015560405183815233906001600160a01b038616907f73f264e638d8ee9f2fb935ce901d2f80f7133cefaaa71eacd31476a59f33a9249060200160405180910390a350505050565b6060600060015467ffffffffffffffff81111561353557613535613e76565b6040519080825280602002602001820160405280156135c957816020015b6135b660405180610140016040528060006001600160a01b03168152602001606081526020016060815260200160608152602001600081526020016060815260200160608152602001606081526020016000151581526020016000151581525090565b8152602001906001900390816135535790505b50905060005b600154811015611d615760066000600783815481106135f0576135f0614c34565b60009182526020808320909101546001600160a01b03908116845283820194909452604092830190912082516101408101909352805490931682526001830180549293929184019161364190614a11565b80601f016020809104026020016040519081016040528092919081815260200182805461366d90614a11565b80156136ba5780601f1061368f576101008083540402835291602001916136ba565b820191906000526020600020905b81548152906001019060200180831161369d57829003601f168201915b505050505081526020016002820180546136d390614a11565b80601f01602080910402602001604051908101604052809291908181526020018280546136ff90614a11565b801561374c5780601f106137215761010080835404028352916020019161374c565b820191906000526020600020905b81548152906001019060200180831161372f57829003601f168201915b5050505050815260200160038201805461376590614a11565b80601f016020809104026020016040519081016040528092919081815260200182805461379190614a11565b80156137de5780601f106137b3576101008083540402835291602001916137de565b820191906000526020600020905b8154815290600101906020018083116137c157829003601f168201915b505050505081526020016004820154815260200160058201805461380190614a11565b80601f016020809104026020016040519081016040528092919081815260200182805461382d90614a11565b801561387a5780601f1061384f5761010080835404028352916020019161387a565b820191906000526020600020905b81548152906001019060200180831161385d57829003601f168201915b5050505050815260200160068201805461389390614a11565b80601f01602080910402602001604051908101604052809291908181526020018280546138bf90614a11565b801561390c5780601f106138e15761010080835404028352916020019161390c565b820191906000526020600020905b8154815290600101906020018083116138ef57829003601f168201915b5050505050815260200160078201805461392590614a11565b80601f016020809104026020016040519081016040528092919081815260200182805461395190614a11565b801561399e5780601f106139735761010080835404028352916020019161399e565b820191906000526020600020905b81548152906001019060200180831161398157829003601f168201915b50505091835250506008919091015460ff8082161515602084015261010090910416151560409091015282518390839081106139dc576139dc614c34565b602002602001018190525080806139f290614a7e565b9150506135cf565b33600090815260086020526040902060070154600160a01b900460ff16613a5e5760405162461bcd60e51b8152602060048201526018602482015277139bdd0818481c9959da5cdd195c9959081c185d1a595b9d60421b6044820152606401610b2a565b6000828152600a60208190526040909120015460ff16613ab65760405162461bcd60e51b81526020600482015260136024820152724d65646963696e65206e6f742061637469766560681b6044820152606401610b2a565b6000828152600a602052604090206006810154821115613b0b5760405162461bcd60e51b815260206004820152601060248201526f4e6f7420656e6f7567682073746f636b60801b6044820152606401610b2a565b6000828260050154613b1d9190614ba6565b905060006064836007015483613b339190614ba6565b613b3d9190614bbd565b90506000613b4b8284614bdf565b905080341015613b9d5760405162461bcd60e51b815260206004820152601b60248201527f496e73756666696369656e742066756e64732070726f766964656400000000006044820152606401610b2a565b8060056000828254613baf9190614bf2565b9250508190555084846006016000828254613bca9190614bdf565b909155505034811015613c0f57336108fc613be58334614bdf565b6040518115909202916000818181858888f19350505050158015613c0d573d6000803e3d6000fd5b505b604051858152869033907f6f7496a74e21588e865e252db5f46b17dd1ea32f96f913630f33e26224fb8f489060200160405180910390a3505050505050565b6000816001600160a01b0316836001600160a01b03161015613cb1576040516bffffffffffffffffffffffff19606085811b8216602084015284901b1660348201526048015b604051602081830303815290604052805190602001209050613cdf565b6040516bffffffffffffffffffffffff19606084811b8216602084015285901b166034820152604801613c94565b92915050565b80356001600160a01b0381168114613cfc57600080fd5b919050565b600060208284031215613d1357600080fd5b613d1c82613ce5565b9392505050565b6000815180845260005b81811015613d4957602081850181015186830182015201613d2d565b506000602082860101526020601f19601f83011685010191505092915050565b6001600160a01b038a8116825261012060208301819052600091613d8f8483018d613d23565b91508a60408501528382036060850152613da9828b613d23565b91508382036080850152613dbd828a613d23565b915083820360a0850152613dd18289613d23565b915083820360c0850152613de58288613d23565b951660e0840152505090151561010090910152979650505050505050565b600060208284031215613e1557600080fd5b5035919050565b8681526001600160a01b0386811660208301528516604082015260c060608201819052600090613e4e90830186613d23565b8281036080840152613e608186613d23565b91505082151560a0830152979650505050505050565b634e487b7160e01b600052604160045260246000fd5b600082601f830112613e9d57600080fd5b813567ffffffffffffffff80821115613eb857613eb8613e76565b604051601f8301601f19908116603f01168101908282118183101715613ee057613ee0613e76565b81604052838152866020858801011115613ef957600080fd5b836020870160208301376000602085830101528094505050505092915050565b60008060008060008060008060006101208a8c031215613f3857600080fd5b893567ffffffffffffffff80821115613f5057600080fd5b613f5c8d838e01613e8c565b9a5060208c0135915080821115613f7257600080fd5b613f7e8d838e01613e8c565b995060408c0135915080821115613f9457600080fd5b613fa08d838e01613e8c565b985060608c0135915080821115613fb657600080fd5b613fc28d838e01613e8c565b975060808c0135965060a08c0135955060c08c0135945060e08c0135915080821115613fed57600080fd5b613ff98d838e01613e8c565b93506101008c013591508082111561401057600080fd5b5061401d8c828d01613e8c565b9150509295985092959850929598565b6000806040838503121561404057600080fd5b61404983613ce5565b91506020830135801515811461405e57600080fd5b809150509250929050565b60008060006060848603121561407e57600080fd5b61408784613ce5565b9250602084013567ffffffffffffffff808211156140a457600080fd5b6140b087838801613e8c565b935060408601359150808211156140c657600080fd5b506140d386828701613e8c565b9150509250925092565b600080600080600080600060e0888a0312156140f857600080fd5b873567ffffffffffffffff8082111561411057600080fd5b61411c8b838c01613e8c565b985060208a013591508082111561413257600080fd5b61413e8b838c01613e8c565b975060408a013591508082111561415457600080fd5b6141608b838c01613e8c565b965060608a0135955060808a013591508082111561417d57600080fd5b6141898b838c01613e8c565b945060a08a013591508082111561419f57600080fd5b6141ab8b838c01613e8c565b935060c08a01359150808211156141c157600080fd5b506141ce8a828b01613e8c565b91505092959891949750929550565b600080604083850312156141f057600080fd5b6141f983613ce5565b946020939093013593505050565b60006020808301818452808551808352604092508286019150828160051b87010184880160005b8381101561433157603f1989840301855281516101608151855288820151818a87015261425d82870182613d23565b91505087820151858203898701526142758282613d23565b9150506060808301518683038288015261428f8382613d23565b92505050608080830151868303828801526142aa8382613d23565b9250505060a080830151818701525060c080830151818701525060e080830151818701525061010080830151868303828801526142e78382613d23565b9250505061012080830151868303828801526143038382613d23565b9250505061014080830151925061431d8187018415159052565b50958801959350509086019060010161422e565b509098975050505050505050565b8781526001600160a01b038781166020830152861660408201526060810185905260e06080820181905260009061437890830186613d23565b60a08301949094525060c0015295945050505050565b60006020808301818452808551808352604092508286019150828160051b87010184880160005b8381101561433157888303603f19018552815180518452878101516001600160a01b03908116898601528782015116878501526060808201519085015260808082015160e0828701819052919061440e83880182613d23565b60a0858101519089015260c094850151949097019390935250505093860193908601906001016143b5565b8681526001600160a01b0386811660208301528516604082015260c06060820181905260009061446b90830186613d23565b828103608084015261447d8186613d23565b9150508260a0830152979650505050505050565b6001600160a01b038b168152610140602082018190526000906144b68382018d613d23565b905082810360408401526144ca818c613d23565b905082810360608401526144de818b613d23565b905088608084015282810360a08401526144f88189613d23565b905082810360c084015261450c8188613d23565b905082810360e08401526145208187613d23565b94151561010084015250509015156101209091015298975050505050505050565b60006020808301818452808551808352604092508286019150828160051b87010184880160005b8381101561433157888303603f19018552815180516001600160a01b039081168552888201511688850152868101516080888601819052906145ac82870182613d23565b60609384015196909301959095525094870194925090860190600101614568565b60006101608d83528060208401526145e78184018e613d23565b905082810360408401526145fb818d613d23565b9050828103606084015261460f818c613d23565b90508281036080840152614623818b613d23565b90508860a08401528760c08401528660e084015282810361010084015261464a8187613d23565b905082810361012084015261465f8186613d23565b9150508215156101408301529c9b505050505050505050505050565b600080600080600080600060e0888a03121561469657600080fd5b873567ffffffffffffffff808211156146ae57600080fd5b6146ba8b838c01613e8c565b985060208a0135975060408a01359150808211156146d757600080fd5b6146e38b838c01613e8c565b965060608a01359150808211156146f957600080fd5b6147058b838c01613e8c565b955060808a013591508082111561471b57600080fd5b6147278b838c01613e8c565b945060a08a013591508082111561473d57600080fd5b5061474a8a828b01613e8c565b92505061475960c08901613ce5565b905092959891949750929550565b6000806040838503121561477a57600080fd5b61478383613ce5565b9150602083013567ffffffffffffffff81111561479f57600080fd5b6147ab85828601613e8c565b9150509250929050565b60006020808301818452808551808352604092508286019150828160051b87010184880160005b8381101561433157888303603f19018552815180518452878101516001600160a01b039081168986015287820151168785015260608082015160c0828701819052919061482b83880182613d23565b92505050608080830151868303828801526148468382613d23565b60a09485015197909401969096525050948701949250908601906001016147dc565b6000806000806080858703121561487e57600080fd5b61488785613ce5565b935060208501359250604085013567ffffffffffffffff8111156148aa57600080fd5b6148b687828801613e8c565b949793965093946060013593505050565b60006020808301818452808551808352604092508286019150828160051b87010184880160005b8381101561433157888303603f19018552815180516001600160a01b0316845261014088820151818a87015261492682870182613d23565b915050878201518582038987015261493e8282613d23565b915050606080830151868303828801526149588382613d23565b92505050608080830151818701525060a0808301518683038288015261497e8382613d23565b9250505060c080830151868303828801526149998382613d23565b9250505060e080830151868303828801526149b48382613d23565b92505050610100808301516149cc8288018215159052565b5050610120918201511515949091019390935293860193908601906001016148ee565b60008060408385031215614a0257600080fd5b50508035926020909101359150565b600181811c90821680614a2557607f821691505b602082108103611d6157634e487b7160e01b600052602260045260246000fd5b6020808252600990820152682737ba1020b236b4b760b91b604082015260600190565b634e487b7160e01b600052601160045260246000fd5b600060018201614a9057614a90614a68565b5060010190565b601f821115614ae157600081815260208120601f850160051c81016020861015614abe5750805b601f850160051c820191505b81811015614add57828155600101614aca565b5050505b505050565b815167ffffffffffffffff811115614b0057614b00613e76565b614b1481614b0e8454614a11565b84614a97565b602080601f831160018114614b495760008415614b315750858301515b600019600386901b1c1916600185901b178555614add565b600085815260208120601f198616915b82811015614b7857888601518255948401946001909101908401614b59565b5085821015614b965787850151600019600388901b60f8161c191681555b5050505050600190811b01905550565b8082028115828204841417613cdf57613cdf614a68565b600082614bda57634e487b7160e01b600052601260045260246000fd5b500490565b81810381811115613cdf57613cdf614a68565b80820180821115613cdf57613cdf614a68565b6020808252601590820152742737ba1030903b32b934b334b2b2103237b1ba37b960591b604082015260600190565b634e487b7160e01b600052603260045260246000fdfea2646970667358221220f72eab24a5d1695d059d08be061eb20f6c3a6053e19d6d683f9b4b7f5ba9a87f64736f6c63430008140033",
  "linkReferences": {},
  "deployedLinkReferences": {}
}