{
  "_format": "hh-sol-artifact-1",
  "contractName": "Healthcare",
  "sourceName": "contracts/Healthcare.sol",
  "abi": [
    {
      "inputs": [],
      "stateMutability": "nonpayable",
      "type": "constructor"
    },
    {
      "anonymous": false,
      "inputs": [
        {
          "indexed": true,
          "internalType": "uint256",
          "name": "appointmentId",
          "type": "uint256"
        },
        {
          "indexed": true,
          "internalType": "address",
          "name": "patient",
          "type": "address"
        },
        {
          "indexed": true,
          "internalType": "address",
          "name": "doctor",
          "type": "address"
        }
      ],
      "name": "AppointmentBooked",
      "type": "event"
    },
    {
      "anonymous": false,
      "inputs": [
        {
          "indexed": true,
          "internalType": "uint256",
          "name": "appointmentId",
          "type": "uint256"
        }
      ],
      "name": "AppointmentCompleted",
      "type": "event"
    },
    {
      "anonymous": false,
      "inputs": [
        {
          "indexed": true,
          "internalType": "address",
          "name": "doctor",
          "type": "address"
        }
      ],
      "name": "DoctorRegistered",
      "type": "event"
    },
    {
      "anonymous": false,
      "inputs": [
        {
          "indexed": true,
          "internalType": "address",
          "name": "admin",
          "type": "address"
        },
        {
          "indexed": true,
          "internalType": "address",
          "name": "doctor",
          "type": "address"
        },
        {
          "indexed": false,
          "internalType": "bool",
          "name": "status",
          "type": "bool"
        }
      ],
      "name": "DoctorVerified",
      "type": "event"
    },
    {
      "anonymous": false,
      "inputs": [
        {
          "indexed": true,
          "internalType": "address",
          "name": "patient",
          "type": "address"
        },
        {
          "indexed": true,
          "internalType": "address",
          "name": "doctor",
          "type": "address"
        }
      ],
      "name": "MedicalRecordUpdated",
      "type": "event"
    },
    {
      "anonymous": false,
      "inputs": [
        {
          "indexed": true,
          "internalType": "uint256",
          "name": "medicineId",
          "type": "uint256"
        }
      ],
      "name": "MedicineAdded",
      "type": "event"
    },
    {
      "anonymous": false,
      "inputs": [
        {
          "indexed": true,
          "internalType": "address",
          "name": "patient",
          "type": "address"
        },
        {
          "indexed": true,
          "internalType": "address",
          "name": "doctor",
          "type": "address"
        },
        {
          "indexed": false,
          "internalType": "uint256",
          "name": "medicineId",
          "type": "uint256"
        }
      ],
      "name": "MedicinePrescribed",
      "type": "event"
    },
    {
      "anonymous": false,
      "inputs": [
        {
          "indexed": true,
          "internalType": "address",
          "name": "patient",
          "type": "address"
        },
        {
          "indexed": true,
          "internalType": "uint256",
          "name": "medicineId",
          "type": "uint256"
        },
        {
          "indexed": false,
          "internalType": "uint256",
          "name": "quantity",
          "type": "uint256"
        }
      ],
      "name": "MedicinePurchased",
      "type": "event"
    },
    {
      "anonymous": false,
      "inputs": [
        {
          "indexed": true,
          "internalType": "address",
          "name": "sender",
          "type": "address"
        },
        {
          "indexed": true,
          "internalType": "address",
          "name": "receiver",
          "type": "address"
        }
      ],
      "name": "MessageSent",
      "type": "event"
    },
    {
      "anonymous": false,
      "inputs": [
        {
          "indexed": true,
          "internalType": "address",
          "name": "patient",
          "type": "address"
        }
      ],
      "name": "PatientRegistered",
      "type": "event"
    },
    {
      "inputs": [
        {
          "internalType": "string",
          "name": "_name",
          "type": "string"
        },
        {
          "internalType": "string",
          "name": "_manufacturer",
          "type": "string"
        },
        {
          "internalType": "string",
          "name": "_category",
          "type": "string"
        },
        {
          "internalType": "string",
          "name": "_dosage",
          "type": "string"
        },
        {
          "internalType": "uint256",
          "name": "_price",
          "type": "uint256"
        },
        {
          "internalType": "uint256",
          "name": "_stockQuantity",
          "type": "uint256"
        },
        {
          "internalType": "uint256",
          "name": "_discount",
          "type": "uint256"
        },
        {
          "internalType": "string",
          "name": "_sideEffects",
          "type": "string"
        },
        {
          "internalType": "string",
          "name": "_imageURI",
          "type": "string"
        }
      ],
      "name": "addMedicine",
      "outputs": [],
      "stateMutability": "nonpayable",
      "type": "function"
    },
    {
      "inputs": [],
      "name": "admin",
      "outputs": [
        {
          "internalType": "address",
          "name": "",
          "type": "address"
        }
      ],
      "stateMutability": "view",
      "type": "function"
    },
    {
      "inputs": [],
      "name": "appointmentCount",
      "outputs": [
        {
          "internalType": "uint256",
          "name": "",
          "type": "uint256"
        }
      ],
      "stateMutability": "view",
      "type": "function"
    },
    {
      "inputs": [
        {
          "internalType": "uint256",
          "name": "",
          "type": "uint256"
        }
      ],
      "name": "appointments",
      "outputs": [
        {
          "internalType": "uint256",
          "name": "id",
          "type": "uint256"
        },
        {
          "internalType": "address",
          "name": "patient",
          "type": "address"
        },
        {
          "internalType": "address",
          "name": "doctor",
          "type": "address"
        },
        {
          "internalType": "string",
          "name": "time",
          "type": "string"
        },
        {
          "internalType": "string",
          "name": "note",
          "type": "string"
        },
        {
          "internalType": "bool",
          "name": "isCompleted",
          "type": "bool"
        }
      ],
      "stateMutability": "view",
      "type": "function"
    },
    {
      "inputs": [
        {
          "internalType": "address",
          "name": "_doctor",
          "type": "address"
        },
        {
          "internalType": "string",
          "name": "_time",
          "type": "string"
        },
        {
          "internalType": "string",
          "name": "_note",
          "type": "string"
        }
      ],
      "name": "bookAppointment",
      "outputs": [],
      "stateMutability": "payable",
      "type": "function"
    },
    {
      "inputs": [
        {
          "internalType": "uint256",
          "name": "_medicineId",
          "type": "uint256"
        },
        {
          "internalType": "uint256",
          "name": "_quantity",
          "type": "uint256"
        }
      ],
      "name": "buyMedicine",
      "outputs": [],
      "stateMutability": "payable",
      "type": "function"
    },
    {
      "inputs": [
        {
          "internalType": "uint256",
          "name": "_appointmentId",
          "type": "uint256"
        }
      ],
      "name": "completeAppointment",
      "outputs": [],
      "stateMutability": "nonpayable",
      "type": "function"
    },
    {
      "inputs": [
        {
          "internalType": "uint256",
          "name": "",
          "type": "uint256"
        }
      ],
      "name": "doctorAddresses",
      "outputs": [
        {
          "internalType": "address",
          "name": "",
          "type": "address"
        }
      ],
      "stateMutability": "view",
      "type": "function"
    },
    {
      "inputs": [
        {
          "internalType": "address",
          "name": "",
          "type": "address"
        },
        {
          "internalType": "uint256",
          "name": "",
          "type": "uint256"
        }
      ],
      "name": "doctorAppointments",
      "outputs": [
        {
          "internalType": "uint256",
          "name": "",
          "type": "uint256"
        }
      ],
      "stateMutability": "view",
      "type": "function"
    },
    {
      "inputs": [],
      "name": "doctorCount",
      "outputs": [
        {
          "internalType": "uint256",
          "name": "",
          "type": "uint256"
        }
      ],
      "stateMutability": "view",
      "type": "function"
    },
    {
      "inputs": [
        {
          "internalType": "address",
          "name": "",
          "type": "address"
        }
      ],
      "name": "doctors",
      "outputs": [
        {
          "internalType": "address",
          "name": "wallet",
          "type": "address"
        },
        {
          "internalType": "string",
          "name": "name",
          "type": "string"
        },
        {
          "internalType": "string",
          "name": "specialization",
          "type": "string"
        },
        {
          "internalType": "string",
          "name": "experience",
          "type": "string"
        },
        {
          "internalType": "uint256",
          "name": "consultationFee",
          "type": "uint256"
        },
        {
          "internalType": "string",
          "name": "availableHours",
          "type": "string"
        },
        {
          "internalType": "string",
          "name": "profileImageURI",
          "type": "string"
        },
        {
          "internalType": "string",
          "name": "certificateURI",
          "type": "string"
        },
        {
          "internalType": "bool",
          "name": "isVerified",
          "type": "bool"
        },
        {
          "internalType": "bool",
          "name": "isRegistered",
          "type": "bool"
        }
      ],
      "stateMutability": "view",
      "type": "function"
    },
    {
      "inputs": [],
      "name": "getAllDoctors",
      "outputs": [
        {
          "components": [
            {
              "internalType": "address",
              "name": "wallet",
              "type": "address"
            },
            {
              "internalType": "string",
              "name": "name",
              "type": "string"
            },
            {
              "internalType": "string",
              "name": "specialization",
              "type": "string"
            },
            {
              "internalType": "string",
              "name": "experience",
              "type": "string"
            },
            {
              "internalType": "uint256",
              "name": "consultationFee",
              "type": "uint256"
            },
            {
              "internalType": "string",
              "name": "availableHours",
              "type": "string"
            },
            {
              "internalType": "string",
              "name": "profileImageURI",
              "type": "string"
            },
            {
              "internalType": "string",
              "name": "certificateURI",
              "type": "string"
            },
            {
              "internalType": "bool",
              "name": "isVerified",
              "type": "bool"
            },
            {
              "internalType": "bool",
              "name": "isRegistered",
              "type": "bool"
            }
          ],
          "internalType": "struct Healthcare.Doctor[]",
          "name": "",
          "type": "tuple[]"
        }
      ],
      "stateMutability": "view",
      "type": "function"
    },
    {
      "inputs": [],
      "name": "getAllMedicines",
      "outputs": [
        {
          "components": [
            {
              "internalType": "uint256",
              "name": "id",
              "type": "uint256"
            },
            {
              "internalType": "string",
              "name": "name",
              "type": "string"
            },
            {
              "internalType": "string",
              "name": "manufacturer",
              "type": "string"
            },
            {
              "internalType": "string",
              "name": "category",
              "type": "string"
            },
            {
              "internalType": "string",
              "name": "dosage",
              "type": "string"
            },
            {
              "internalType": "uint256",
              "name": "price",
              "type": "uint256"
            },
            {
              "internalType": "uint256",
              "name": "stockQuantity",
              "type": "uint256"
            },
            {
              "internalType": "uint256",
              "name": "discount",
              "type": "uint256"
            },
            {
              "internalType": "string",
              "name": "sideEffects",
              "type": "string"
            },
            {
              "internalType": "string",
              "name": "imageURI",
              "type": "string"
            },
            {
              "internalType": "bool",
              "name": "isActive",
              "type": "bool"
            }
          ],
          "internalType": "struct Healthcare.Medicine[]",
          "name": "",
          "type": "tuple[]"
        }
      ],
      "stateMutability": "view",
      "type": "function"
    },
    {
      "inputs": [
        {
          "internalType": "address",
          "name": "_otherUser",
          "type": "address"
        }
      ],
      "name": "getMessages",
      "outputs": [
        {
          "components": [
            {
              "internalType": "address",
              "name": "sender",
              "type": "address"
            },
            {
              "internalType": "address",
              "name": "receiver",
              "type": "address"
            },
            {
              "internalType": "string",
              "name": "content",
              "type": "string"
            },
            {
              "internalType": "uint256",
              "name": "timestamp",
              "type": "uint256"
            }
          ],
          "internalType": "struct Healthcare.Message[]",
          "name": "",
          "type": "tuple[]"
        }
      ],
      "stateMutability": "view",
      "type": "function"
    },
    {
      "inputs": [
        {
          "internalType": "address",
          "name": "_patient",
          "type": "address"
        }
      ],
      "name": "getPatientMedicalHistory",
      "outputs": [
        {
          "components": [
            {
              "internalType": "uint256",
              "name": "id",
              "type": "uint256"
            },
            {
              "internalType": "address",
              "name": "patient",
              "type": "address"
            },
            {
              "internalType": "address",
              "name": "doctor",
              "type": "address"
            },
            {
              "internalType": "string",
              "name": "diagnosis",
              "type": "string"
            },
            {
              "internalType": "string",
              "name": "medicalHistory",
              "type": "string"
            },
            {
              "internalType": "uint256",
              "name": "timestamp",
              "type": "uint256"
            }
          ],
          "internalType": "struct Healthcare.MedicalRecord[]",
          "name": "",
          "type": "tuple[]"
        }
      ],
      "stateMutability": "view",
      "type": "function"
    },
    {
      "inputs": [
        {
          "internalType": "address",
          "name": "_patient",
          "type": "address"
        }
      ],
      "name": "getPatientPrescriptions",
      "outputs": [
        {
          "components": [
            {
              "internalType": "uint256",
              "name": "id",
              "type": "uint256"
            },
            {
              "internalType": "address",
              "name": "patient",
              "type": "address"
            },
            {
              "internalType": "address",
              "name": "doctor",
              "type": "address"
            },
            {
              "internalType": "uint256",
              "name": "medicineId",
              "type": "uint256"
            },
            {
              "internalType": "string",
              "name": "dosageInstruction",
              "type": "string"
            },
            {
              "internalType": "uint256",
              "name": "quantity",
              "type": "uint256"
            },
            {
              "internalType": "uint256",
              "name": "timestamp",
              "type": "uint256"
            }
          ],
          "internalType": "struct Healthcare.Prescription[]",
          "name": "",
          "type": "tuple[]"
        }
      ],
      "stateMutability": "view",
      "type": "function"
    },
    {
      "inputs": [],
      "name": "getPlatformStats",
      "outputs": [
        {
          "internalType": "uint256",
          "name": "_doctors",
          "type": "uint256"
        },
        {
          "internalType": "uint256",
          "name": "_patients",
          "type": "uint256"
        },
        {
          "internalType": "uint256",
          "name": "_medicines",
          "type": "uint256"
        },
        {
          "internalType": "uint256",
          "name": "_appointments",
          "type": "uint256"
        },
        {
          "internalType": "uint256",
          "name": "_revenue",
          "type": "uint256"
        }
      ],
      "stateMutability": "view",
      "type": "function"
    },
    {
      "inputs": [],
      "name": "medicineCount",
      "outputs": [
        {
          "internalType": "uint256",
          "name": "",
          "type": "uint256"
        }
      ],
      "stateMutability": "view",
      "type": "function"
    },
    {
      "inputs": [
        {
          "internalType": "uint256",
          "name": "",
          "type": "uint256"
        }
      ],
      "name": "medicines",
      "outputs": [
        {
          "internalType": "uint256",
          "name": "id",
          "type": "uint256"
        },
        {
          "internalType": "string",
          "name": "name",
          "type": "string"
        },
        {
          "internalType": "string",
          "name": "manufacturer",
          "type": "string"
        },
        {
          "internalType": "string",
          "name": "category",
          "type": "string"
        },
        {
          "internalType": "string",
          "name": "dosage",
          "type": "string"
        },
        {
          "internalType": "uint256",
          "name": "price",
          "type": "uint256"
        },
        {
          "internalType": "uint256",
          "name": "stockQuantity",
          "type": "uint256"
        },
        {
          "internalType": "uint256",
          "name": "discount",
          "type": "uint256"
        },
        {
          "internalType": "string",
          "name": "sideEffects",
          "type": "string"
        },
        {
          "internalType": "string",
          "name": "imageURI",
          "type": "string"
        },
        {
          "internalType": "bool",
          "name": "isActive",
          "type": "bool"
        }
      ],
      "stateMutability": "view",
      "type": "function"
    },
    {
      "inputs": [
        {
          "internalType": "uint256",
          "name": "",
          "type": "uint256"
        }
      ],
      "name": "patientAddresses",
      "outputs": [
        {
          "internalType": "address",
          "name": "",
          "type": "address"
        }
      ],
      "stateMutability": "view",
      "type": "function"
    },
    {
      "inputs": [
        {
          "internalType": "address",
          "name": "",
          "type": "address"
        },
        {
          "internalType": "uint256",
          "name": "",
          "type": "uint256"
        }
      ],
      "name": "patientAppointments",
      "outputs": [
        {
          "internalType": "uint256",
          "name": "",
          "type": "uint256"
        }
      ],
      "stateMutability": "view",
      "type": "function"
    },
    {
      "inputs": [],
      "name": "patientCount",
      "outputs": [
        {
          "internalType": "uint256",
          "name": "",
          "type": "uint256"
        }
      ],
      "stateMutability": "view",
      "type": "function"
    },
    {
      "inputs": [
        {
          "internalType": "address",
          "name": "",
          "type": "address"
        },
        {
          "internalType": "uint256",
          "name": "",
          "type": "uint256"
        }
      ],
      "name": "patientPrescriptions",
      "outputs": [
        {
          "internalType": "uint256",
          "name": "id",
          "type": "uint256"
        },
        {
          "internalType": "address",
          "name": "patient",
          "type": "address"
        },
        {
          "internalType": "address",
          "name": "doctor",
          "type": "address"
        },
        {
          "internalType": "uint256",
          "name": "medicineId",
          "type": "uint256"
        },
        {
          "internalType": "string",
          "name": "dosageInstruction",
          "type": "string"
        },
        {
          "internalType": "uint256",
          "name": "quantity",
          "type": "uint256"
        },
        {
          "internalType": "uint256",
          "name": "timestamp",
          "type": "uint256"
        }
      ],
      "stateMutability": "view",
      "type": "function"
    },
    {
      "inputs": [
        {
          "internalType": "address",
          "name": "",
          "type": "address"
        },
        {
          "internalType": "uint256",
          "name": "",
          "type": "uint256"
        }
      ],
      "name": "patientRecords",
      "outputs": [
        {
          "internalType": "uint256",
          "name": "id",
          "type": "uint256"
        },
        {
          "internalType": "address",
          "name": "patient",
          "type": "address"
        },
        {
          "internalType": "address",
          "name": "doctor",
          "type": "address"
        },
        {
          "internalType": "string",
          "name": "diagnosis",
          "type": "string"
        },
        {
          "internalType": "string",
          "name": "medicalHistory",
          "type": "string"
        },
        {
          "internalType": "uint256",
          "name": "timestamp",
          "type": "uint256"
        }
      ],
      "stateMutability": "view",
      "type": "function"
    },
    {
      "inputs": [
        {
          "internalType": "address",
          "name": "",
          "type": "address"
        }
      ],
      "name": "patients",
      "outputs": [
        {
          "internalType": "address",
          "name": "wallet",
          "type": "address"
        },
        {
          "internalType": "string",
          "name": "name",
          "type": "string"
        },
        {
          "internalType": "uint256",
          "name": "age",
          "type": "uint256"
        },
        {
          "internalType": "string",
          "name": "bloodGroup",
          "type": "string"
        },
        {
          "internalType": "string",
          "name": "allergies",
          "type": "string"
        },
        {
          "internalType": "string",
          "name": "currentMedications",
          "type": "string"
        },
        {
          "internalType": "string",
          "name": "profileImageURI",
          "type": "string"
        },
        {
          "internalType": "address",
          "name": "generalConsultant",
          "type": "address"
        },
        {
          "internalType": "bool",
          "name": "isRegistered",
          "type": "bool"
        }
      ],
      "stateMutability": "view",
      "type": "function"
    },
    {
      "inputs": [],
      "name": "platformRevenue",
      "outputs": [
        {
          "internalType": "uint256",
          "name": "",
          "type": "uint256"
        }
      ],
      "stateMutability": "view",
      "type": "function"
    },
    {
      "inputs": [
        {
          "internalType": "address",
          "name": "_patient",
          "type": "address"
        },
        {
          "internalType": "uint256",
          "name": "_medicineId",
          "type": "uint256"
        },
        {
          "internalType": "string",
          "name": "_dosageInstruction",
          "type": "string"
        },
        {
          "internalType": "uint256",
          "name": "_quantity",
          "type": "uint256"
        }
      ],
      "name": "prescribeMedicine",
      "outputs": [],
      "stateMutability": "nonpayable",
      "type": "function"
    },
    {
      "inputs": [
        {
          "internalType": "string",
          "name": "_name",
          "type": "string"
        },
        {
          "internalType": "string",
          "name": "_specialization",
          "type": "string"
        },
        {
          "internalType": "string",
          "name": "_experience",
          "type": "string"
        },
        {
          "internalType": "uint256",
          "name": "_consultationFee",
          "type": "uint256"
        },
        {
          "internalType": "string",
          "name": "_availableHours",
          "type": "string"
        },
        {
          "internalType": "string",
          "name": "_profileImageURI",
          "type": "string"
        },
        {
          "internalType": "string",
          "name": "_certificateURI",
          "type": "string"
        }
      ],
      "name": "registerDoctor",
      "outputs": [],
      "stateMutability": "payable",
      "type": "function"
    },
    {
      "inputs": [
        {
          "internalType": "string",
          "name": "_name",
          "type": "string"
        },
        {
          "internalType": "uint256",
          "name": "_age",
          "type": "uint256"
        },
        {
          "internalType": "string",
          "name": "_bloodGroup",
          "type": "string"
        },
        {
          "internalType": "string",
          "name": "_allergies",
          "type": "string"
        },
        {
          "internalType": "string",
          "name": "_currentMedications",
          "type": "string"
        },
        {
          "internalType": "string",
          "name": "_profileImageURI",
          "type": "string"
        },
        {
          "internalType": "address",
          "name": "_generalConsultant",
          "type": "address"
        }
      ],
      "name": "registerPatient",
      "outputs": [],
      "stateMutability": "nonpayable",
      "type": "function"
    },
    {
      "inputs": [
        {
          "internalType": "address",
          "name": "_receiver",
          "type": "address"
        },
        {
          "internalType": "string",
          "name": "_content",
          "type": "string"
        }
      ],
      "name": "sendMessage",
      "outputs": [],
      "stateMutability": "nonpayable",
      "type": "function"
    },
    {
      "inputs": [
        {
          "internalType": "address",
          "name": "_patient",
          "type": "address"
        },
        {
          "internalType": "string",
          "name": "_diagnosis",
          "type": "string"
        },
        {
          "internalType": "string",
          "name": "_history",
          "type": "string"
        }
      ],
      "name": "updateMedicalRecord",
      "outputs": [],
      "stateMutability": "nonpayable",
      "type": "function"
    },
    {
      "inputs": [
        {
          "internalType": "address",
          "name": "_doctorAddress",
          "type": "address"
        },
        {
          "internalType": "bool",
          "name": "_status",
          "type": "bool"
        }
      ],
      "name": "verifyDoctor",
      "outputs": [],
      "stateMutability": "nonpayable",
      "type": "function"
    },
    {
      "inputs": [],
      "name": "withdrawPlatformRevenue",
      "outputs": [],
      "stateMutability": "nonpayable",
      "type": "function"
    }
  ],
  "bytecode": "0x608060405234801561001057600080fd5b50600080546001600160a01b03191633179055614b72806100326000396000f3fe60806040526004361061017e5760003560e01c80630869cfbc1461018357806312dc9013146101c157806312eb9c3d146101f3578063136d8883146102155780631d0050721461025257806324048ba114610272578063291be93b146102965780633ba51e7c146102a95780634095b117146102e15780634978b9ac146103015780634dafd4901461031457806357cd46f51461032a57806368f2b1d21461034a5780636a85de141461036c578063733ba56d1461038c57806378522bc4146103bf5780638906af48146103d55780638a462e1a146103ea57806394f0df6114610417578063a0303c4114610449578063a9583c221461045f578063b2f7132214610495578063b40f1691146104c2578063c604c408146104e2578063c85e766d14610502578063d9591cbc14610539578063de6f24bb14610559578063e3da7a5814610579578063ea94101c146105a6578063eebc3fb2146105c6578063f0d95090146105dc578063f851a440146105fe578063f8da57d41461061e575b600080fd5b34801561018f57600080fd5b506101a361019e366004613b23565b610631565b6040516101b899989796959493929190613b8b565b60405180910390f35b3480156101cd57600080fd5b506101e16101dc366004613c25565b61093a565b6040516101b896959493929190613c3e565b3480156101ff57600080fd5b5061021361020e366004613d3a565b610a90565b005b34801561022157600080fd5b5061022a610c3a565b604080519586526020860194909452928401919091526060830152608082015260a0016101b8565b34801561025e57600080fd5b5061021361026d366004613e4d565b610c8a565b34801561027e57600080fd5b5061028860055481565b6040519081526020016101b8565b6102136102a4366004613e89565b610d80565b3480156102b557600080fd5b506102c96102c4366004613c25565b611455565b6040516001600160a01b0390911681526020016101b8565b3480156102ed57600080fd5b506102136102fc366004613c25565b61147f565b61021361030f366004613efc565b611557565b34801561032057600080fd5b5061028860035481565b34801561033657600080fd5b50610288610345366004613ffb565b6117b0565b34801561035657600080fd5b5061035f6117e1565b6040516101b89190614025565b34801561037857600080fd5b50610288610387366004613ffb565b611ca2565b34801561039857600080fd5b506103ac6103a7366004613ffb565b611cbe565b6040516101b8979695949392919061415d565b3480156103cb57600080fd5b5061028860015481565b3480156103e157600080fd5b50610213611db0565b3480156103f657600080fd5b5061040a610405366004613b23565b611e6b565b6040516101b891906141ac565b34801561042357600080fd5b50610437610432366004613ffb565b612002565b6040516101b896959493929190614257565b34801561045557600080fd5b5061028860025481565b34801561046b57600080fd5b5061047f61047a366004613b23565b612174565b6040516101b89a999897969594939291906142af565b3480156104a157600080fd5b506104b56104b0366004613b23565b612501565b6040516101b8919061435f565b3480156104ce57600080fd5b506102c96104dd366004613c25565b612641565b3480156104ee57600080fd5b506102136104fd366004613e89565b612651565b34801561050e57600080fd5b5061052261051d366004613c25565b6127f3565b6040516101b89b9a999897969594939291906143eb565b34801561054557600080fd5b50610213610554366004614499565b612b79565b34801561056557600080fd5b50610213610574366004614584565b612dc0565b34801561058557600080fd5b50610599610594366004613b23565b612f7f565b6040516101b891906145d1565b3480156105b257600080fd5b506102136105c1366004614684565b613189565b3480156105d257600080fd5b5061028860045481565b3480156105e857600080fd5b506105f1613398565b6040516101b891906146e2565b34801561060a57600080fd5b506000546102c9906001600160a01b031681565b61021361062c36600461480a565b61387b565b600860205260009081526040902080546001820180546001600160a01b03909216929161065d9061482c565b80601f01602080910402602001604051908101604052809291908181526020018280546106899061482c565b80156106d65780601f106106ab576101008083540402835291602001916106d6565b820191906000526020600020905b8154815290600101906020018083116106b957829003601f168201915b5050505050908060020154908060030180546106f19061482c565b80601f016020809104026020016040519081016040528092919081815260200182805461071d9061482c565b801561076a5780601f1061073f5761010080835404028352916020019161076a565b820191906000526020600020905b81548152906001019060200180831161074d57829003601f168201915b50505050509080600401805461077f9061482c565b80601f01602080910402602001604051908101604052809291908181526020018280546107ab9061482c565b80156107f85780601f106107cd576101008083540402835291602001916107f8565b820191906000526020600020905b8154815290600101906020018083116107db57829003601f168201915b50505050509080600501805461080d9061482c565b80601f01602080910402602001604051908101604052809291908181526020018280546108399061482c565b80156108865780601f1061085b57610100808354040283529160200191610886565b820191906000526020600020905b81548152906001019060200180831161086957829003601f168201915b50505050509080600601805461089b9061482c565b80601f01602080910402602001604051908101604052809291908181526020018280546108c79061482c565b80156109145780601f106108e957610100808354040283529160200191610914565b820191906000526020600020905b8154815290600101906020018083116108f757829003601f168201915b505050600790930154919250506001600160a01b0381169060ff600160a01b9091041689565b600b60205260009081526040902080546001820154600283015460038401805493946001600160a01b039384169493909216926109769061482c565b80601f01602080910402602001604051908101604052809291908181526020018280546109a29061482c565b80156109ef5780601f106109c4576101008083540402835291602001916109ef565b820191906000526020600020905b8154815290600101906020018083116109d257829003601f168201915b505050505090806004018054610a049061482c565b80601f0160208091040260200160405190810160405280929190818152602001828054610a309061482c565b8015610a7d5780601f10610a5257610100808354040283529160200191610a7d565b820191906000526020600020905b815481529060010190602001808311610a6057829003601f168201915b5050506005909301549192505060ff1686565b6000546001600160a01b03163314610ac35760405162461bcd60e51b8152600401610aba90614860565b60405180910390fd5b60038054906000610ad383614899565b919050555060405180610160016040528060035481526020018a815260200189815260200188815260200187815260200186815260200185815260200184815260200183815260200182815260200160011515815250600a60006003548152602001908152602001600020600082015181600001556020820151816001019081610b5d9190614901565b5060408201516002820190610b729082614901565b5060608201516003820190610b879082614901565b5060808201516004820190610b9c9082614901565b5060a0820151600582015560c0820151600682015560e082015160078201556101008201516008820190610bd09082614901565b506101208201516009820190610be69082614901565b506101409190910151600a909101805460ff19169115159190911790556003546040517f511473a8b15b86f1492210a23d1ca9781536639fd7d462db4c2f736d1bd8012590600090a2505050505050505050565b6000805481908190819081906001600160a01b03163314610c6d5760405162461bcd60e51b8152600401610aba90614860565b505060015460025460035460045460055493979296509094509250565b6000546001600160a01b03163314610cb45760405162461bcd60e51b8152600401610aba90614860565b6001600160a01b038216600090815260066020526040902060080154610100900460ff16610d1c5760405162461bcd60e51b8152602060048201526015602482015274111bd8dd1bdc881b9bdd081c9959da5cdd195c9959605a1b6044820152606401610aba565b6001600160a01b038216600081815260066020908152604091829020600801805460ff1916851515908117909155915191825233917ff3b2a2dbe1c8d1e0425b293c440e24d2b5dbe409a1acc30428faa90f8d02342f910160405180910390a35050565b33600090815260086020526040902060070154600160a01b900460ff16610db95760405162461bcd60e51b8152600401610aba906149c0565b6001600160a01b03831660009081526006602052604090206008015460ff16610e1a5760405162461bcd60e51b8152602060048201526013602482015272111bd8dd1bdc881b9bdd081d995c9a599a5959606a1b6044820152606401610aba565b6001600160a01b0380841660009081526006602090815260408083208151610140810190925280549094168152600184018054939491939192840191610e5f9061482c565b80601f0160208091040260200160405190810160405280929190818152602001828054610e8b9061482c565b8015610ed85780601f10610ead57610100808354040283529160200191610ed8565b820191906000526020600020905b815481529060010190602001808311610ebb57829003601f168201915b50505050508152602001600282018054610ef19061482c565b80601f0160208091040260200160405190810160405280929190818152602001828054610f1d9061482c565b8015610f6a5780601f10610f3f57610100808354040283529160200191610f6a565b820191906000526020600020905b815481529060010190602001808311610f4d57829003601f168201915b50505050508152602001600382018054610f839061482c565b80601f0160208091040260200160405190810160405280929190818152602001828054610faf9061482c565b8015610ffc5780601f10610fd157610100808354040283529160200191610ffc565b820191906000526020600020905b815481529060010190602001808311610fdf57829003601f168201915b505050505081526020016004820154815260200160058201805461101f9061482c565b80601f016020809104026020016040519081016040528092919081815260200182805461104b9061482c565b80156110985780601f1061106d57610100808354040283529160200191611098565b820191906000526020600020905b81548152906001019060200180831161107b57829003601f168201915b505050505081526020016006820180546110b19061482c565b80601f01602080910402602001604051908101604052809291908181526020018280546110dd9061482c565b801561112a5780601f106110ff5761010080835404028352916020019161112a565b820191906000526020600020905b81548152906001019060200180831161110d57829003601f168201915b505050505081526020016007820180546111439061482c565b80601f016020809104026020016040519081016040528092919081815260200182805461116f9061482c565b80156111bc5780601f10611191576101008083540402835291602001916111bc565b820191906000526020600020905b81548152906001019060200180831161119f57829003601f168201915b50505091835250506008919091015460ff8082161515602084015261010090910416151560409091015260808101519091503481111561123e5760405162461bcd60e51b815260206004820152601d60248201527f496e73756666696369656e7420636f6e73756c746174696f6e206665650000006044820152606401610aba565b6000606461124d83600a6149f2565b6112579190614a09565b905060006112658284614a2b565b905081600560008282546112799190614a3e565b90915550506040516001600160a01b0388169082156108fc029083906000818181858888f193505050501580156112b4573d6000803e3d6000fd5b50823411156112f557336108fc6112cb8534614a2b565b6040518115909202916000818181858888f193505050501580156112f3573d6000803e3d6000fd5b505b6004805490600061130583614899565b90915550506040805160c0810182526004548082523360208084019182526001600160a01b038c8116858701908152606086018d8152608087018d9052600060a08801819052958652600b909352959093208451815591516001830180549185166001600160a01b03199283161790559451600283018054919094169516949094179091559151909190600382019061139e9082614901565b50608082015160048201906113b39082614901565b5060a091909101516005909101805460ff19169115159190911790556001600160a01b0387166000818152600c6020908152604080832060048054825460018181018555938752858720015533808652600d85528386208254815494850182559087529486209092019390935591549051919290917f293ab1017d4dce6bbfd2f1a97155e877709f29ee393b5226fe7d731879fe8b669190a450505050505050565b6007818154811061146557600080fd5b6000918252602090912001546001600160a01b0316905081565b3360009081526006602052604090206008015460ff166114b15760405162461bcd60e51b8152600401610aba90614a51565b6000818152600b60205260409020600201546001600160a01b031633146115115760405162461bcd60e51b8152602060048201526014602482015273139bdd081e5bdd5c88185c1c1bda5b9d1b595b9d60621b6044820152606401610aba565b6000818152600b6020526040808220600501805460ff191660011790555182917f96f7f7d72a3fe4b137949271ceab16ab2121be2faeda69bb82794730701668ca91a250565b33600090815260066020526040902060080154610100900460ff161561158f5760405162461bcd60e51b8152600401610aba90614a80565b600034116115db5760405162461bcd60e51b8152602060048201526019602482015278149959da5cdd1c985d1a5bdb88199959481c995c5d5a5c9959603a1b6044820152606401610aba565b34600560008282546115ed9190614a3e565b909155505060408051610140810182523380825260208083018b81528385018b9052606084018a90526080840189905260a0840188905260c0840187905260e0840186905260006101008501819052600161012086018190529381526006909252939020825181546001600160a01b0319166001600160a01b039091161781559251919291908201906116809082614901565b50604082015160028201906116959082614901565b50606082015160038201906116aa9082614901565b506080820151600482015560a082015160058201906116c99082614901565b5060c082015160068201906116de9082614901565b5060e082015160078201906116f39082614901565b50610100828101516008909201805461012090940151151590910261ff00199215159290921661ffff1990931692909217179055600780546001818101835560009283527fa66cc928b5edb82af9bd49922954155ab7b0942694bea4ce44661d9a8736c68890910180546001600160a01b0319163317905580549161177783614899565b909155505060405133907f2dc8105a7545248d0e354c4c6b02fb583071cc719fb4bef1ca74d72d475570bc90600090a250505050505050565b600c60205281600052604060002081815481106117cc57600080fd5b90600052602060002001600091509150505481565b606060006003546001600160401b038111156117ff576117ff613c98565b60405190808252806020026020018201604052801561188f57816020015b61187c604051806101600160405280600081526020016060815260200160608152602001606081526020016060815260200160008152602001600081526020016000815260200160608152602001606081526020016000151581525090565b81526020019060019003908161181d5790505b50905060015b6003548111611c9c57600a600082815260200190815260200160002060405180610160016040529081600082015481526020016001820180546118d79061482c565b80601f01602080910402602001604051908101604052809291908181526020018280546119039061482c565b80156119505780601f1061192557610100808354040283529160200191611950565b820191906000526020600020905b81548152906001019060200180831161193357829003601f168201915b505050505081526020016002820180546119699061482c565b80601f01602080910402602001604051908101604052809291908181526020018280546119959061482c565b80156119e25780601f106119b7576101008083540402835291602001916119e2565b820191906000526020600020905b8154815290600101906020018083116119c557829003601f168201915b505050505081526020016003820180546119fb9061482c565b80601f0160208091040260200160405190810160405280929190818152602001828054611a279061482c565b8015611a745780601f10611a4957610100808354040283529160200191611a74565b820191906000526020600020905b815481529060010190602001808311611a5757829003601f168201915b50505050508152602001600482018054611a8d9061482c565b80601f0160208091040260200160405190810160405280929190818152602001828054611ab99061482c565b8015611b065780601f10611adb57610100808354040283529160200191611b06565b820191906000526020600020905b815481529060010190602001808311611ae957829003601f168201915b50505050508152602001600582015481526020016006820154815260200160078201548152602001600882018054611b3d9061482c565b80601f0160208091040260200160405190810160405280929190818152602001828054611b699061482c565b8015611bb65780601f10611b8b57610100808354040283529160200191611bb6565b820191906000526020600020905b815481529060010190602001808311611b9957829003601f168201915b50505050508152602001600982018054611bcf9061482c565b80601f0160208091040260200160405190810160405280929190818152602001828054611bfb9061482c565b8015611c485780601f10611c1d57610100808354040283529160200191611c48565b820191906000526020600020905b815481529060010190602001808311611c2b57829003601f168201915b5050509183525050600a919091015460ff16151560209091015282611c6e600184614a2b565b81518110611c7e57611c7e614aac565b60200260200101819052508080611c9490614899565b915050611895565b50919050565b600d60205281600052604060002081815481106117cc57600080fd5b600f6020528160005260406000208181548110611cda57600080fd5b6000918252602090912060079091020180546001820154600283015460038401546004850180549497506001600160a01b03938416965091909216939192611d219061482c565b80601f0160208091040260200160405190810160405280929190818152602001828054611d4d9061482c565b8015611d9a5780601f10611d6f57610100808354040283529160200191611d9a565b820191906000526020600020905b815481529060010190602001808311611d7d57829003601f168201915b5050505050908060050154908060060154905087565b6000546001600160a01b03163314611dda5760405162461bcd60e51b8152600401610aba90614860565b600060055411611e235760405162461bcd60e51b81526020600482015260146024820152734e6f20726576656e756520617661696c61626c6560601b6044820152606401610aba565b60058054600091829055815460405191926001600160a01b039091169183156108fc0291849190818181858888f19350505050158015611e67573d6000803e3d6000fd5b5050565b6060336001600160a01b0383161480611e9657503360009081526006602052604090206008015460ff165b611eb25760405162461bcd60e51b8152600401610aba90614ac2565b6001600160a01b0382166000908152600f6020908152604080832080548251818502810185019093528083529193909284015b82821015611ff75760008481526020908190206040805160e081018252600786029092018054835260018101546001600160a01b039081169484019490945260028101549093169082015260038201546060820152600482018054919291608084019190611f529061482c565b80601f0160208091040260200160405190810160405280929190818152602001828054611f7e9061482c565b8015611fcb5780601f10611fa057610100808354040283529160200191611fcb565b820191906000526020600020905b815481529060010190602001808311611fae57829003601f168201915b505050505081526020016005820154815260200160068201548152505081526020019060010190611ee5565b505050509050919050565b600e602052816000526040600020818154811061201e57600080fd5b600091825260209091206006909102018054600182015460028301546003840180549396506001600160a01b0392831695509116929161205d9061482c565b80601f01602080910402602001604051908101604052809291908181526020018280546120899061482c565b80156120d65780601f106120ab576101008083540402835291602001916120d6565b820191906000526020600020905b8154815290600101906020018083116120b957829003601f168201915b5050505050908060040180546120eb9061482c565b80601f01602080910402602001604051908101604052809291908181526020018280546121179061482c565b80156121645780601f1061213957610100808354040283529160200191612164565b820191906000526020600020905b81548152906001019060200180831161214757829003601f168201915b5050505050908060050154905086565b600660205260009081526040902080546001820180546001600160a01b0390921692916121a09061482c565b80601f01602080910402602001604051908101604052809291908181526020018280546121cc9061482c565b80156122195780601f106121ee57610100808354040283529160200191612219565b820191906000526020600020905b8154815290600101906020018083116121fc57829003601f168201915b50505050509080600201805461222e9061482c565b80601f016020809104026020016040519081016040528092919081815260200182805461225a9061482c565b80156122a75780601f1061227c576101008083540402835291602001916122a7565b820191906000526020600020905b81548152906001019060200180831161228a57829003601f168201915b5050505050908060030180546122bc9061482c565b80601f01602080910402602001604051908101604052809291908181526020018280546122e89061482c565b80156123355780601f1061230a57610100808354040283529160200191612335565b820191906000526020600020905b81548152906001019060200180831161231857829003601f168201915b5050505050908060040154908060050180546123509061482c565b80601f016020809104026020016040519081016040528092919081815260200182805461237c9061482c565b80156123c95780601f1061239e576101008083540402835291602001916123c9565b820191906000526020600020905b8154815290600101906020018083116123ac57829003601f168201915b5050505050908060060180546123de9061482c565b80601f016020809104026020016040519081016040528092919081815260200182805461240a9061482c565b80156124575780601f1061242c57610100808354040283529160200191612457565b820191906000526020600020905b81548152906001019060200180831161243a57829003601f168201915b50505050509080600701805461246c9061482c565b80601f01602080910402602001604051908101604052809291908181526020018280546124989061482c565b80156124e55780601f106124ba576101008083540402835291602001916124e5565b820191906000526020600020905b8154815290600101906020018083116124c857829003601f168201915b5050506008909301549192505060ff808216916101009004168a565b6060600061250f3384613aa2565b905060106000828152602001908152602001600020805480602002602001604051908101604052809291908181526020016000905b82821015612635576000848152602090819020604080516080810182526004860290920180546001600160a01b039081168452600182015416938301939093526002830180549293929184019161259a9061482c565b80601f01602080910402602001604051908101604052809291908181526020018280546125c69061482c565b80156126135780601f106125e857610100808354040283529160200191612613565b820191906000526020600020905b8154815290600101906020018083116125f657829003601f168201915b5050505050815260200160038201548152505081526020019060010190612544565b50505050915050919050565b6009818154811061146557600080fd5b3360009081526006602052604090206008015460ff166126835760405162461bcd60e51b8152600401610aba90614a51565b6001600160a01b038316600090815260086020526040902060070154600160a01b900460ff166126c55760405162461bcd60e51b8152600401610aba90614aea565b6001600160a01b0383166000908152600e602052604090819020815160c08101909252805490919081906126fa906001614a3e565b81526001600160a01b03808716602080840191909152336040808501919091526060808501899052608085018890524260a09095019490945285546001818101885560009788529683902086516006909202019081559185015195820180549684166001600160a01b031997881617905584015160028201805491909316951694909417905581015190919060038201906127959082614901565b50608082015160048201906127aa9082614901565b5060a0919091015160059091015560405133906001600160a01b038516907f7aad3427a5688a3c9b78661da62e1b221cd7ed81de6187fee67c0fd73c162a6d90600090a3505050565b600a60205260009081526040902080546001820180549192916128159061482c565b80601f01602080910402602001604051908101604052809291908181526020018280546128419061482c565b801561288e5780601f106128635761010080835404028352916020019161288e565b820191906000526020600020905b81548152906001019060200180831161287157829003601f168201915b5050505050908060020180546128a39061482c565b80601f01602080910402602001604051908101604052809291908181526020018280546128cf9061482c565b801561291c5780601f106128f15761010080835404028352916020019161291c565b820191906000526020600020905b8154815290600101906020018083116128ff57829003601f168201915b5050505050908060030180546129319061482c565b80601f016020809104026020016040519081016040528092919081815260200182805461295d9061482c565b80156129aa5780601f1061297f576101008083540402835291602001916129aa565b820191906000526020600020905b81548152906001019060200180831161298d57829003601f168201915b5050505050908060040180546129bf9061482c565b80601f01602080910402602001604051908101604052809291908181526020018280546129eb9061482c565b8015612a385780601f10612a0d57610100808354040283529160200191612a38565b820191906000526020600020905b815481529060010190602001808311612a1b57829003601f168201915b505050505090806005015490806006015490806007015490806008018054612a5f9061482c565b80601f0160208091040260200160405190810160405280929190818152602001828054612a8b9061482c565b8015612ad85780601f10612aad57610100808354040283529160200191612ad8565b820191906000526020600020905b815481529060010190602001808311612abb57829003601f168201915b505050505090806009018054612aed9061482c565b80601f0160208091040260200160405190810160405280929190818152602001828054612b199061482c565b8015612b665780601f10612b3b57610100808354040283529160200191612b66565b820191906000526020600020905b815481529060010190602001808311612b4957829003601f168201915b505050600a909301549192505060ff168b565b33600090815260086020526040902060070154600160a01b900460ff1615612bb35760405162461bcd60e51b8152600401610aba90614a80565b6001600160a01b03811660009081526006602052604090206008015460ff16612c135760405162461bcd60e51b8152602060048201526012602482015271125b9d985b1a590818dbdb9cdd5b1d185b9d60721b6044820152606401610aba565b60408051610120810182523380825260208083018b81528385018b9052606084018a90526080840189905260a0840188905260c084018790526001600160a01b0386811660e0860152600161010086018190526000948552600890935294909220835181546001600160a01b0319169516949094178455905191929190820190612c9d9082614901565b506040820151600282015560608201516003820190612cbc9082614901565b5060808201516004820190612cd19082614901565b5060a08201516005820190612ce69082614901565b5060c08201516006820190612cfb9082614901565b5060e082015160079091018054610100909301511515600160a01b026001600160a81b03199093166001600160a01b03909216919091179190911790556009805460018101825560009182527f6e1540171b6c0c960b71a7020d9f60077f6af931a8bbf590da0223dacf75c7af0180546001600160a01b031916331790556002805491612d8783614899565b909155505060405133907fc9fa2003fca4ce0dfc8cb0deae32266b715536df6685365b05b5be96ede8e49c90600090a250505050505050565b3360009081526006602052604090206008015460ff168015612e0457506001600160a01b038216600090815260086020526040902060070154600160a01b900460ff165b80612e4e575033600090815260086020526040902060070154600160a01b900460ff168015612e4e57506001600160a01b03821660009081526006602052604090206008015460ff165b612e9a5760405162461bcd60e51b815260206004820152601d60248201527f556e617574686f72697a6564206368617420636f6d62696e6174696f6e0000006044820152606401610aba565b6000612ea63384613aa2565b600081815260106020908152604080832081516080810183523381526001600160a01b0389811682860190815293820189815242606084015283546001818101865594885295909620825160049096020180549582166001600160a01b0319968716178155935192840180549390911692909416919091179092559151929350916002820190612f369082614901565b50606091909101516003909101556040516001600160a01b0384169033907f921d068ef716f8cffdc14d917b9e3b77c957cd11d308c2c4f92732cc0190f86190600090a3505050565b6060336001600160a01b0383161480612faa57503360009081526006602052604090206008015460ff165b612fc65760405162461bcd60e51b8152600401610aba90614ac2565b6001600160a01b0382166000908152600e6020908152604080832080548251818502810185019093528083529193909284015b82821015611ff75760008481526020908190206040805160c081018252600686029092018054835260018101546001600160a01b039081169484019490945260028101549093169082015260038201805491929160608401919061305c9061482c565b80601f01602080910402602001604051908101604052809291908181526020018280546130889061482c565b80156130d55780601f106130aa576101008083540402835291602001916130d5565b820191906000526020600020905b8154815290600101906020018083116130b857829003601f168201915b505050505081526020016004820180546130ee9061482c565b80601f016020809104026020016040519081016040528092919081815260200182805461311a9061482c565b80156131675780601f1061313c57610100808354040283529160200191613167565b820191906000526020600020905b81548152906001019060200180831161314a57829003601f168201915b5050505050815260200160058201548152505081526020019060010190612ff9565b3360009081526006602052604090206008015460ff166131bb5760405162461bcd60e51b8152600401610aba90614a51565b6001600160a01b038416600090815260086020526040902060070154600160a01b900460ff166131fd5760405162461bcd60e51b8152600401610aba90614aea565b6000838152600a60208190526040909120015460ff166132585760405162461bcd60e51b81526020600482015260166024820152754d65646963696e65206e6f7420617661696c61626c6560501b6044820152606401610aba565b6001600160a01b0384166000908152600f602052604090819020815160e081019092528054909190819061328d906001614a3e565b81526001600160a01b038088166020808401919091523360408085019190915260608085018a905260808086018a905260a086018990524260c09096019590955286546001818101895560009889529784902087516007909202019081559286015196830180549785166001600160a01b03199889161790559085015160028301805491909416961695909517909155928201516003840155810151909190600482019061333b9082614901565b5060a0820151600582015560c09091015160069091015560405183815233906001600160a01b038616907f73f264e638d8ee9f2fb935ce901d2f80f7133cefaaa71eacd31476a59f33a9249060200160405180910390a350505050565b606060006001546001600160401b038111156133b6576133b6613c98565b60405190808252806020026020018201604052801561344a57816020015b61343760405180610140016040528060006001600160a01b03168152602001606081526020016060815260200160608152602001600081526020016060815260200160608152602001606081526020016000151581526020016000151581525090565b8152602001906001900390816133d45790505b50905060005b600154811015611c9c57600660006007838154811061347157613471614aac565b60009182526020808320909101546001600160a01b0390811684528382019490945260409283019091208251610140810190935280549093168252600183018054929392918401916134c29061482c565b80601f01602080910402602001604051908101604052809291908181526020018280546134ee9061482c565b801561353b5780601f106135105761010080835404028352916020019161353b565b820191906000526020600020905b81548152906001019060200180831161351e57829003601f168201915b505050505081526020016002820180546135549061482c565b80601f01602080910402602001604051908101604052809291908181526020018280546135809061482c565b80156135cd5780601f106135a2576101008083540402835291602001916135cd565b820191906000526020600020905b8154815290600101906020018083116135b057829003601f168201915b505050505081526020016003820180546135e69061482c565b80601f01602080910402602001604051908101604052809291908181526020018280546136129061482c565b801561365f5780601f106136345761010080835404028352916020019161365f565b820191906000526020600020905b81548152906001019060200180831161364257829003601f168201915b50505050508152602001600482015481526020016005820180546136829061482c565b80601f01602080910402602001604051908101604052809291908181526020018280546136ae9061482c565b80156136fb5780601f106136d0576101008083540402835291602001916136fb565b820191906000526020600020905b8154815290600101906020018083116136de57829003601f168201915b505050505081526020016006820180546137149061482c565b80601f01602080910402602001604051908101604052809291908181526020018280546137409061482c565b801561378d5780601f106137625761010080835404028352916020019161378d565b820191906000526020600020905b81548152906001019060200180831161377057829003601f168201915b505050505081526020016007820180546137a69061482c565b80601f01602080910402602001604051908101604052809291908181526020018280546137d29061482c565b801561381f5780601f106137f45761010080835404028352916020019161381f565b820191906000526020600020905b81548152906001019060200180831161380257829003601f168201915b50505091835250506008919091015460ff80821615156020840152610100909104161515604090910152825183908390811061385d5761385d614aac565b6020026020010181905250808061387390614899565b915050613450565b33600090815260086020526040902060070154600160a01b900460ff166138b45760405162461bcd60e51b8152600401610aba906149c0565b6000828152600a60208190526040909120015460ff1661390c5760405162461bcd60e51b81526020600482015260136024820152724d65646963696e65206e6f742061637469766560681b6044820152606401610aba565b6000828152600a6020526040902060068101548211156139615760405162461bcd60e51b815260206004820152601060248201526f4e6f7420656e6f7567682073746f636b60801b6044820152606401610aba565b600082826005015461397391906149f2565b90506000606483600701548361398991906149f2565b6139939190614a09565b905060006139a18284614a2b565b9050803410156139f15760405162461bcd60e51b815260206004820152601b60248201527a125b9cdd59999a58da595b9d08199d5b991cc81c1c9bdd9a591959602a1b6044820152606401610aba565b8060056000828254613a039190614a3e565b9250508190555084846006016000828254613a1e9190614a2b565b909155505034811015613a6357336108fc613a398334614a2b565b6040518115909202916000818181858888f19350505050158015613a61573d6000803e3d6000fd5b505b604051858152869033907f6f7496a74e21588e865e252db5f46b17dd1ea32f96f913630f33e26224fb8f489060200160405180910390a3505050505050565b6000816001600160a01b0316836001600160a01b03161015613aee578282604051602001613ad1929190614b1a565b604051602081830303815290604052805190602001209050613b01565b8183604051602001613ad1929190614b1a565b92915050565b80356001600160a01b0381168114613b1e57600080fd5b919050565b600060208284031215613b3557600080fd5b613b3e82613b07565b9392505050565b6000815180845260005b81811015613b6b57602081850181015186830182015201613b4f565b506000602082860101526020601f19601f83011685010191505092915050565b6001600160a01b038a8116825261012060208301819052600091613bb18483018d613b45565b91508a60408501528382036060850152613bcb828b613b45565b91508382036080850152613bdf828a613b45565b915083820360a0850152613bf38289613b45565b915083820360c0850152613c078288613b45565b951660e0840152505090151561010090910152979650505050505050565b600060208284031215613c3757600080fd5b5035919050565b8681526001600160a01b0386811660208301528516604082015260c060608201819052600090613c7090830186613b45565b8281036080840152613c828186613b45565b91505082151560a0830152979650505050505050565b634e487b7160e01b600052604160045260246000fd5b600082601f830112613cbf57600080fd5b81356001600160401b0380821115613cd957613cd9613c98565b604051601f8301601f19908116603f01168101908282118183101715613d0157613d01613c98565b81604052838152866020858801011115613d1a57600080fd5b836020870160208301376000602085830101528094505050505092915050565b60008060008060008060008060006101208a8c031215613d5957600080fd5b89356001600160401b0380821115613d7057600080fd5b613d7c8d838e01613cae565b9a5060208c0135915080821115613d9257600080fd5b613d9e8d838e01613cae565b995060408c0135915080821115613db457600080fd5b613dc08d838e01613cae565b985060608c0135915080821115613dd657600080fd5b613de28d838e01613cae565b975060808c0135965060a08c0135955060c08c0135945060e08c0135915080821115613e0d57600080fd5b613e198d838e01613cae565b93506101008c0135915080821115613e3057600080fd5b50613e3d8c828d01613cae565b9150509295985092959850929598565b60008060408385031215613e6057600080fd5b613e6983613b07565b915060208301358015158114613e7e57600080fd5b809150509250929050565b600080600060608486031215613e9e57600080fd5b613ea784613b07565b925060208401356001600160401b0380821115613ec357600080fd5b613ecf87838801613cae565b93506040860135915080821115613ee557600080fd5b50613ef286828701613cae565b9150509250925092565b600080600080600080600060e0888a031215613f1757600080fd5b87356001600160401b0380821115613f2e57600080fd5b613f3a8b838c01613cae565b985060208a0135915080821115613f5057600080fd5b613f5c8b838c01613cae565b975060408a0135915080821115613f7257600080fd5b613f7e8b838c01613cae565b965060608a0135955060808a0135915080821115613f9b57600080fd5b613fa78b838c01613cae565b945060a08a0135915080821115613fbd57600080fd5b613fc98b838c01613cae565b935060c08a0135915080821115613fdf57600080fd5b50613fec8a828b01613cae565b91505092959891949750929550565b6000806040838503121561400e57600080fd5b61401783613b07565b946020939093013593505050565b60006020808301818452808551808352604092508286019150828160051b87010184880160005b8381101561414f57603f1989840301855281516101608151855288820151818a87015261407b82870182613b45565b91505087820151858203898701526140938282613b45565b915050606080830151868303828801526140ad8382613b45565b92505050608080830151868303828801526140c88382613b45565b9250505060a080830151818701525060c080830151818701525060e080830151818701525061010080830151868303828801526141058382613b45565b9250505061012080830151868303828801526141218382613b45565b9250505061014080830151925061413b8187018415159052565b50958801959350509086019060010161404c565b509098975050505050505050565b8781526001600160a01b038781166020830152861660408201526060810185905260e06080820181905260009061419690830186613b45565b60a08301949094525060c0015295945050505050565b60006020808301818452808551808352604092508286019150828160051b87010184880160005b8381101561414f57888303603f19018552815180518452878101516001600160a01b03908116898601528782015116878501526060808201519085015260808082015160e0828701819052919061422c83880182613b45565b60a0858101519089015260c094850151949097019390935250505093860193908601906001016141d3565b8681526001600160a01b0386811660208301528516604082015260c06060820181905260009061428990830186613b45565b828103608084015261429b8186613b45565b9150508260a0830152979650505050505050565b6001600160a01b038b168152610140602082018190526000906142d48382018d613b45565b905082810360408401526142e8818c613b45565b905082810360608401526142fc818b613b45565b905088608084015282810360a08401526143168189613b45565b905082810360c084015261432a8188613b45565b905082810360e084015261433e8187613b45565b94151561010084015250509015156101209091015298975050505050505050565b60006020808301818452808551808352604092508286019150828160051b87010184880160005b8381101561414f57888303603f19018552815180516001600160a01b039081168552888201511688850152868101516080888601819052906143ca82870182613b45565b60609384015196909301959095525094870194925090860190600101614386565b60006101608d83528060208401526144058184018e613b45565b90508281036040840152614419818d613b45565b9050828103606084015261442d818c613b45565b90508281036080840152614441818b613b45565b90508860a08401528760c08401528660e08401528281036101008401526144688187613b45565b905082810361012084015261447d8186613b45565b9150508215156101408301529c9b505050505050505050505050565b600080600080600080600060e0888a0312156144b457600080fd5b87356001600160401b03808211156144cb57600080fd5b6144d78b838c01613cae565b985060208a0135975060408a01359150808211156144f457600080fd5b6145008b838c01613cae565b965060608a013591508082111561451657600080fd5b6145228b838c01613cae565b955060808a013591508082111561453857600080fd5b6145448b838c01613cae565b945060a08a013591508082111561455a57600080fd5b506145678a828b01613cae565b92505061457660c08901613b07565b905092959891949750929550565b6000806040838503121561459757600080fd5b6145a083613b07565b915060208301356001600160401b038111156145bb57600080fd5b6145c785828601613cae565b9150509250929050565b60006020808301818452808551808352604092508286019150828160051b87010184880160005b8381101561414f57888303603f19018552815180518452878101516001600160a01b039081168986015287820151168785015260608082015160c0828701819052919061464783880182613b45565b92505050608080830151868303828801526146628382613b45565b60a09485015197909401969096525050948701949250908601906001016145f8565b6000806000806080858703121561469a57600080fd5b6146a385613b07565b93506020850135925060408501356001600160401b038111156146c557600080fd5b6146d187828801613cae565b949793965093946060013593505050565b60006020808301818452808551808352604092508286019150828160051b87010184880160005b8381101561414f57888303603f19018552815180516001600160a01b0316845261014088820151818a87015261474182870182613b45565b91505087820151858203898701526147598282613b45565b915050606080830151868303828801526147738382613b45565b92505050608080830151818701525060a080830151868303828801526147998382613b45565b9250505060c080830151868303828801526147b48382613b45565b9250505060e080830151868303828801526147cf8382613b45565b92505050610100808301516147e78288018215159052565b505061012091820151151594909101939093529386019390860190600101614709565b6000806040838503121561481d57600080fd5b50508035926020909101359150565b600181811c9082168061484057607f821691505b602082108103611c9c57634e487b7160e01b600052602260045260246000fd5b6020808252600990820152682737ba1020b236b4b760b91b604082015260600190565b634e487b7160e01b600052601160045260246000fd5b6000600182016148ab576148ab614883565b5060010190565b601f8211156148fc57600081815260208120601f850160051c810160208610156148d95750805b601f850160051c820191505b818110156148f8578281556001016148e5565b5050505b505050565b81516001600160401b0381111561491a5761491a613c98565b61492e81614928845461482c565b846148b2565b602080601f831160018114614963576000841561494b5750858301515b600019600386901b1c1916600185901b1785556148f8565b600085815260208120601f198616915b8281101561499257888601518255948401946001909101908401614973565b50858210156149b05787850151600019600388901b60f8161c191681555b5050505050600190811b01905550565b602080825260189082015277139bdd0818481c9959da5cdd195c9959081c185d1a595b9d60421b604082015260600190565b8082028115828204841417613b0157613b01614883565b600082614a2657634e487b7160e01b600052601260045260246000fd5b500490565b81810381811115613b0157613b01614883565b80820180821115613b0157613b01614883565b6020808252601590820152742737ba1030903b32b934b334b2b2103237b1ba37b960591b604082015260600190565b602080825260129082015271105b1c9958591e481c9959da5cdd195c995960721b604082015260600190565b634e487b7160e01b600052603260045260246000fd5b6020808252600e908201526d139bdd08185d5d1a1bdc9a5e995960921b604082015260600190565b60208082526016908201527514185d1a595b9d081b9bdd081c9959da5cdd195c995960521b604082015260600190565b6001600160601b0319606093841b811682529190921b1660148201526028019056fea264697066735822122013dd3188a9d7ee29dff9dd27f5d22e3864c98b679aacd5fd0273509b6e0083c564736f6c63430008140033",
  "linkReferences": {},
  "deployedLinkReferences": {}
}